:1000000023C032C031C030C02FC0C0C02DC02CC0F2
:100010002BC02AC029C028C027C026C025C0000088
:100020000000370000000000380002020202020255
:10003000020202020102040810202004100801023A
:10004000000004000000000011241FBECFE5D2E034
:10005000DEBFCDBF20E0A0E6B0E001C01D92A93612
:10006000B207E1F7DDD01DC1CBCFE2E4F0E024918F
:10007000E8E3F0E09491EEE2F0E0E491EE2349F160
:10008000222399F0223071F028F4213071F42AB53E
:100090002F770AC0233011F0243039F42CB52F7D8E
:1000A0002CBD03C02AB52F7D2ABDF0E0EE0FFF1F47
:1000B000EC5DFF4FA591B4912FB7F894811105C065
:1000C0008C91E92FE095E82302C0EC91E92BEC93A9
:1000D0002FBF08953FB7F894809165009091660016
:1000E000A0916700B091680022B708B601FE05C074
:1000F0002F3F19F00196A11DB11D3FBFBA2FA92FA7
:10010000982F8827820F911DA11DB11DBC01CD0123
:1001100046E0660F771F881F991F4A95D1F708950B
:100120008F929F92AF92BF92CF92DF92EF92FF9207
:10013000D1DF4B015C0188EEC82E83E0D82EE12C84
:10014000F12CC8DFDC01CB0188199909AA09BB0988
:10015000883E9340A105B10558F021E0C21AD108AC
:10016000E108F10888EE880E83E0981EA11CB11CFE
:10017000C114D104E104F10421F7FF90EF90DF9066
:10018000CF90BF90AF909F908F9008951F920F9245
:100190000FB60F9211242F933F938F939F93AF939A
:1001A000BF938091610090916200A0916300B09133
:1001B00064003091600020E3230F2D3720F4409637
:1001C000A11DB11D05C023EB230F4196A11DB11D3B
:1001D000209360008093610090936200A09363007D
:1001E000B09364008091650090916600A0916700D3
:1001F000B09168000196A11DB11D80936500909398
:100200006600A0936700B0936800BF91AF919F9183
:100210008F913F912F910F900FBE0F901F901895C7
:1002200078948AB582608ABD8AB581608ABD83B7B9
:10023000826083BF83B7816083BF89B7826089BFD3
:1002400080B7826080BF3298319A309A379A8CB5E5
:1002500080648CBDE8E3F0E02491EEE2F0E084916C
:10026000882399F090E0880F991FFC01E25EFF4F10
:10027000A591B491FC01EC5DFF4F859194918FB7EE
:10028000F894EC91E22BEC938FBFC0E0D0E081E0DA
:10029000ECDE46DF80E0E9DE43DF2097C1F3B0DE2D
:0602A000F6CFF894FFCF39
:00000001FF
