:100000000C94FA0D0C94300E0C94300E0C94300EAF
:100010000C944A140C94300E0C94300E0C94300E48
:100020000C9484140C94300E0C94300E0C94300EFE
:100030000C94300E0C94300E0C94300E0C94300E48
:100040000C94300E0C94300E0C9429200C94300E2D
:100050000C94D81E0C94AE1E0C94300E0C94300EE2
:100060000C94300E0C94300E0C947A200C94300EBC
:100070000C94300E0C94300E0C94300E0C94300E08
:100080000C94300E0C94300E0C94300E1B2F652FF8
:10009000942FF5301431EA3B7C3B963B933D6B3F0C
:1000A0007D40F33F8140AE3B003C2A3C503C703CDD
:1000B0008A3CAC3CCC3CF23C143D2C3D443D6D3D77
:1000C00017401E4027402E4035404F405640EA1A08
:1000D000ED1AE01AE41A041B041BF11AF51AFB1AB4
:1000E000FF1A2A262F2634263E266C266C26482602
:1000F00050265826622610207000D8009FC0FFF0BE
:1001000087F8BFF89EC8BEDCFF9CFB9C40FA71E6F6
:100110005FE944F1258E39011B01130F179F1FFF63
:100120001FFF9FFDDFFEBFF88FF08FCF8F39FDF9E6
:1001300000F9007D000700011020000E001B03F9EC
:100140000FFF1FE11FFD13793B7D39FF39DF5F0290
:10015000678E97FA8F2271A2809C80D8F0C8F9E848
:10016000FFF8FFF8BFF97FFB1FFD0FF1F3F19CF1E2
:100170009FBF9F00BE00E0008000102007C005F078
:1001800007F83FF80EC83CDC7F9C7B9A20FA31FCD4
:100190001FF803F00798070C0F0C0F0C0E0C0F0C38
:1001A0001F0C3F1C3F3C3CFC18F8187008301C60CA
:1001B00017E01D200130077007C0000010200F80DD
:1001C0000BE00FF07FF01D9079B8FF38F73441F461
:1001D00043F83FC007F0031806183C1CF01CF03C25
:1001E000E038E07811F81FF82FF837FF39F11FF1E8
:1001F0001E71120D120362017E000000102007C064
:1002000005F007F83FF80EC83CDC7F9C7B9A20FA8B
:1002100031FC1FF803F00798070C0F0C0F0C0E0CA5
:100220000F0C1F0C3F1C3F3C3CFC18F818700830AA
:100230001C6017E01D200130077007C0000010206F
:1002400007C005F007F83FF80EC83CDC7F9C7B9A9E
:1002500020FA21F61FF8031044F0E9C8FB84F302EA
:10026000F382778237E11FF91FFF9FFFDFFFB7FEA1
:1002700087E887DCC73BF8F10031000A000A001C60
:10028000102003E00FA01FE01FFC13703B3C39FE61
:1002900059DE5F043F8C1FF80FC019E030E030F0EA
:1002A00030F0307030F030F838FC3CFC3F3C1F1828
:1002B0000E180C10063807E804B80C800EE003E0B6
:1002C0000000102001F007D00FF00FFE09B81D9EAE
:1002D0001CFF2CEF2F821FC203FC0FE018C0186018
:1002E000383C380F3C0F1C071E071F881FF81FF4EF
:1002F000FFEC8F9C8FF88E78B048C0488046007E17
:100300000000102003E00FA01FE01FFC13703B3C17
:1003100039FE59DE5F043F8C1FF80FC019E030E052
:1003200030F030F0307030F030F838FC3CFC3F3CBE
:100330001F180E180C10063807E804B80C800EE0E1
:1003400003E00000102003E00FA01FE01FFC13706B
:100350003B3C39FE59DE5F046F841FF808C00F2252
:10036000139721DF40CF41CF41EE87EC9FF8FFF894
:10037000FFF9FFFB7FED17E13BE1DCE38F1F8C0012
:10038000500050003800102003E00FE01FA01FFCB9
:1003900013703B3C39FE59DE5F047F841FF80FE089
:1003A0000C30142824244C224C328C318FF18FF1E4
:1003B000CFF3EFF76FFE7FFE3FFC7E7E7C3E7C3E00
:1003C0002424E4278421FC3F100803C01FF87FFE8B
:1003D000C3C3FFFF200413C87C3E100C07E00FF0DE
:1003E0001BD835AC37ECF5AFF18FFFFF781E7C18CA
:1003F0007FF83E70100C07E00FF01BD835AC37ECDF
:10040000F5AFF18FFFFF781E183E1FFE0E7C101017
:1004100003C007E00FF01FF83BDC75AE77EEF5AFD9
:10042000F18FFFFF781E081038107C187FF83E709F
:100430000C100E0011802F403FC03A8020802AC04F
:1004400070C07BE07EA0B9C07B8076807FC023C077
:1004500001800C100E0031005E807F802B80208098
:100460006A8061C0FBC0AFC073A03BC02DC07FC01D
:10047000788030000D12600090009E007180604016
:100480007E207FA014F041B046B03E300FD81788D0
:10049000638873D07FF07CF060300D12003000482C
:1004A00003C80C70103023F02FF079406C106B10E3
:1004B00063E0DF808F408E305E707FF079F06030D7
:1004C0000C101F0030803C407F200A9060D040B06C
:1004D0003E201CC00F4033C027402F401F400FC09C
:1004E0001FC00C101F0020803C407F200A9060D06D
:1004F00040B03E203C600F206220E330F7707FF078
:10050000606000000C101F0020803C407F200A909B
:1005100060D040B03E203C600F20120023202740D6
:100520005FE07FE03BE00C101F0020803C407F201C
:100530000A9060D040B03E203C400F206220E33063
:10054000F7707FF0607000000C100F8010C023C0A7
:100550004FE09500B060D02047C033802F003CC0F2
:100560002E402F402F803F003B800C100F8010400A
:1005700023C04FE09500B060D02047C063C04F005B
:100580004460CC70EEF0FFE0606000000C100F8063
:10059000104023C04FE09500B060D02047C063C03A
:1005A0004F0004804C402E407FA07FE07DC00C10A7
:1005B0000F80104023C04FE09500B060D02047C0AE
:1005C00023C04F004460CC70EEF0FFE0E06000001C
:1005D00000002200250028002B000000210024003C
:1005E00027002A00010204081020408001020408AC
:1005F00010204080010204081020408001020408FD
:1006000010204080020202020202020204040404DA
:1006100004040404030303030303030301010101AE
:10062000010101016E616E63652D4C6F672100420F
:1006300069747465204D61696E74652D0020566F74
:100640006C7400426174742E207363687761636810
:10065000006B7284667465210068656E2053757046
:1006600065722D0050696C7A65207665726C6569DB
:100670002D0008083C7ED3C7E3FF3C3C6E696368ED
:10068000742E006D757373206D616E2061626572EA
:10069000006D616E2073616D6D656C6E2C004D8117
:1006A0006E7A656E206B616E6E00050570F8F8F865
:1006B00070737072696E67656E21006B616E6E207B
:1006C0006D616E2064726175660041756620476FCA
:1006D0006F6D62617300101003C007E00FF01FF828
:1006E0003BDC75AE77EEF5AFF18FFFFF781E08109B
:1006F000081C183E1FFE0E7C7265747465742077AA
:10070000657264656E2E005065616368206D757357
:10071000732067652D005072696E7A657373696E18
:10072000000A1054007C00FF005300510041806318
:100730008013807FC025C0FD80218040807DC01E49
:1007400000F3C06465722048656C642E004B6C65D4
:100750006D706E65722C20697374004D6172696FE3
:100760002C20646572000C100F801D8030C06FE07B
:10077000C500B56090204FC037802E003D802C8092
:100780002E802F003F003B80506665696C7461735A
:1007900074656E2E0065727374206D6974206465D3
:1007A0006E00537069656C2E447520737465752DE9
:1007B000004A756D702D616E642D52756E2D00446A
:1007C000696573206973742065696E00000000001C
:1007D0000000000000000000000000000000000019
:1007E0000000000000000000000000000000000009
:1007F00000000000000000000000000000000000F9
:1008000000000000000000000000000000000000E8
:100810000000000000000000000000C00000000018
:1008200000000000000000000000000000000000C8
:10083000E0000000000000000000000000000000D8
:100840000000000001200000000000000000000087
:100850000000000000000000000120000000000077
:100860000000000000000000000000000000011077
:100870000000000000000000000000000000000078
:1008800000000003100000000000003E70000000A7
:10089000000000000000000002080000000000004E
:1008A000638C00000000000000000000000208004F
:1008B0000000000003E087C000000000000000000E
:1008C00000000408000000000006000230000000E4
:1008D0000000300000207004040001C000007C0013
:1008E00000100000000000480000FF8C040400031A
:1008F0007B0000C000001800000000004800008CD1
:100900000F0802001E10F001800000180000000017
:1009100000840001800108020030009801000000FE
:100920003000000000008400060003080201E0001F
:100930000401000003EC000000000102000C007E36
:1009400010010300000403003FFF920000000001BB
:1009500002000CFF80100106000004033FFFFC2290
:100960000000000002010007E0001000860000788F
:1009700001FC0100210000000004C0000000002074
:10098000008401FFE00004010040800000007BF0D3
:1009900080000000200087FFFF000008010040C029
:1009A00000000DCE188018000020004380000000D9
:1009B000100080804000001F000E40180000400022
:1009C00044080000001000810020000020000340C7
:1009D00024000040002C04080000300042001002F7
:1009E00001E0000120240000400028040C00002049
:1009F0000042001802030000032042000080003083
:100A0000021200006000240008050200000E1042DF
:100A10000000800010011200004000380004048330
:100A20000FFFFC1081000180001001210000400038
:100A30001000020883FFFFC00881000100000800C9
:100A4000A180008000100003084090400009008051
:100A500001000008004080008000180001104108DB
:100A600040000D00C00200000C00404001000008E2
:100A70000000902204800006004002000004008074
:100A8000600100000C00006034028000020060027F
:100A90000000040080200200000400004018010053
:100AA0000002002004000002010010020000060005
:100AB00000400801000003003004000002010010A3
:100AC00004000002000040080200000100100400C1
:100AD000000302000804000002000080040200007D
:100AE00001001808000001020004080000010000D5
:100AF00080040400000080080800000104000408CD
:100B00000000010001000204000000800408000051
:100B100000840002100000008001000108000000B5
:100B20004004100000008800011000000080020056
:100B30000108000000400210000000880001FFFFD3
:100B4000FFFFFFFFFFFFFFFFFF555555555555555B
:100B500055555555AAAAAAAAAAAAAAAAAAAAAA559E
:100B600055555555555555555555AAAAAAAAAAAA37
:100B7000AAAAAAAAAA55555555555555555555557C
:100B80000200320041000F00010064007800000004
:100B900002009600A50011000100C800DC00000062
:100BA0000100FA00180100000300FF0013010C000F
:100BB00001005E016D01000001007C019A0100004E
:100BC0000200C201D6010D000100F4010D02000077
:100BD00003008A02B2020F000300BF02E7021900FD
:100BE000010020032F0300000200520361031000E4
:100BF000010065036D030000020070037F0319000C
:100C000002004C0456040D0003006F04AB041700EF
:100C100001001405320500000200AA05AF050F000F
:100C20000100400672060000000000000000000005
:100C300002010F0001000B010F00010014010F0061
:100C400001002C01110001003501110001003E01DD
:100C500011000100CC010F00010026020F0001006D
:100C600035020F00010044020F000100C20206001D
:100C70000100CB0206000100D40206000100590366
:100C80001200010073040A0001007C040A00010044
:100C900085040A00010088042A0002008E040A006C
:100CA00001008F040A00010098040A000100FFFF00
:100CB000FFFFFFFF00000000000000000000000038
:100CC00000000000000067656874206C6F732100ED
:100CD0007365696E20756E6420657300616C6C6568
:100CE00073206B6C6172004A65747A7420736F6C48
:100CF0006C746500647281636B656E2100726F7441
:100D000065205461737465006E656E2C206B75727E
:100D10007A006E6963687420657273636865692D13
:100D200000536F6C6C746520646173204F4B00003E
:100D3000002010000000002028400000003044C0C7
:100D40000000002996C0000000377BC00000003280
:100D50006CC000000078CCC00000003FECC0000078
:100D600000603FE000000180081800000300000C54
:100D700000000C0000040000380000020001E00048
:100D800000030001000000018001800000007000ED
:100D9000E00000001005C0080000300E000C00103C
:100DA0006004000E00206004001F00602006003771
:100DB00081E0180300206FF00801807E3C100800DD
:100DC000C0F701F0180081AF83F030008CAF87B01E
:100DD000E00094BF87B18000969F87B50000968F92
:100DE00017DD00009A80111E00008E40182E0000B2
:100DF0008640303E000089203076001919E0F87CEA
:100E0000001618E0D86D001008F0F0CF80100738F9
:100E100073888018000C06F88008000B9C61800C19
:100E20000038F80180060C381DF100027FF7FE0F34
:100E30000002C03A3C0200030017F301000300085F
:100E40000180000000080080000000000000005049
:100E500065616368005669656C20476C816B210091
:100E600050656163682068616C74656E2E00507215
:100E7000696E7A657373696E004B617374656E2079
:100E8000676567656E006D757373742044752064C3
:100E9000656E007281636B2E20416D205A69656C0E
:100EA0000044616E6E206C61756665207A752D0058
:100EB000000460000000001FF800000000311C006A
:100EC0000000002006000000006003000000004C4D
:100ED000C900000000CCC980000007DDC880000008
:100EE0000C1888C0000018000840000010001860AE
:100EF00000003200602000003000002000002000D0
:100F0000002000002000003C00002001807FC00085
:100F1000303F0080F00030400180180019800660EA
:100F20000C000F800F18460006FF89CCC300001F7D
:100F3000A336210000010C1B11800001F0890880FC
:100F4000000300C48880000701C486C0000D064469
:100F500044C00009F84444C0001903C624C0001B63
:100F6000040628C0001F0C0E3880000D9E0910805A
:100F70000007F00109800003D01107000007CC3101
:100F80000300000C33EC830000180FC0C2000010F7
:100F90000C7FE600001018105C00001810004800DC
:100FA00000080001EC00001A20007E00000C100078
:100FB0003C000007F00060000000783840000000AE
:100FC00027C3C0000000187FC00000000FE78000AA
:100FD00070610054726F6F2D007061004B6F6F2D48
:100FE00000657273636865696E742E007761727450
:100FF0006520626973204F4B0054726F6F70657289
:1010000020756E640064656E204B6F6F7061004BDD
:10101000617374656E20676567656E006D656E2C23
:101020002068616C74652064656E006C6F732120AC
:10103000416E67656B6F6D2D0073636865696E74D3
:101040002C206C617566650057656E6E204F4B20D5
:1010500065722D0050696C7A0064656E2050696C71
:101060007A2E005281636B736569746520616E002E
:101070004B617374656E206D6974206465720048FD
:10108000616C74652064656E00756E64207A75729B
:1010900081636B2E0064656E205765672068696EFA
:1010A000004D696E7574656E20668172004475200E
:1010B000686173742000756E64207A757281636B49
:1010C0002E0053747261737365206265726761628A
:1010D00000323030204D65746572206469650062AD
:1010E0006F74732D536368696C640064656D204D83
:1010F000816C6C7665722D004475206D7573737408
:10110000207A750057656974657200748474207361
:10111000746174742E00696E20646572205265617A
:101120006C692D004C6576656C20322066696E64B2
:1011300065740030003A000000000000000000006C
:10114000000000000000000000000000000000009F
:10115000003FF800000001FFFF00000007FFFFC094
:1011600000000FF01FE000001FC007F000003F80EC
:1011700003F800007F0001FC0000FF0001FE0001F9
:10118000FE0000FF0003FE0000FF8003FE0000FFE2
:101190008007FE0000FFC006FE0000FFC00EFE003C
:1011A00000FEE00CFE0000FE600CFE0000FE600C85
:1011B000FF0001FE601CFF8003FE701CFFC007FEE5
:1011C000701CFFE00FFE701DFFF87FFF701FFFFF18
:1011D000FFFF701FFFFFFFFFF01FFFFFFFFFF00F7C
:1011E000FFFFFFFFE00FFFFFFFFFE00FFFF01FFF1C
:1011F000E007FF1011FFC007FC30187FC003F83074
:10120000183F8001F838383F0000F838383E0000B9
:101210003830183800001810183000001C0000701A
:1012200000000E0000E000000F0003E0000007F0E7
:101230001FC0000001FFFF000000003FFC00000095
:10124000000000000000000000000000000000009E
:10125000000000000000004269747465204D61695F
:101260006E744C6F670A2077672E20426174746534
:101270007269650065696E2E0042657375636873F7
:1012800062756368004B6C656D706E65722D0062EF
:101290006974746520696E206461730054726167BB
:1012A0006520446963680067727570706521005637
:1012B0006572676C65696368732D00393125206438
:1012C00065696E65720062657373657220616C7327
:1012D0000044616D6974206269737420447500670D
:1012E000656D656973746572742E002053656B7546
:1012F0006E64656E004475204C6576656C20312007
:10130000696E004175E0657264656D206861737493
:10131000006765736368616666742E0053656B755C
:101320006E64656E2067652D004C61756620696E80
:101330002000447520686173742064656E0020206D
:10134000205761686E73696E6E21006E616E636511
:101350002D4C6F6721004269747465204D61696E80
:1013600074652D004665686C657200556E62656B2C
:10137000616E6E7465720053656974656E2D4665A5
:10138000686C6572006B6170757474210052464917
:10139000442D4C6573657200566F6C740042617425
:1013A0007465726965206C6565722100493243205D
:1013B0006B617075747421006B61707574742100B9
:1013C00054696C742D53656E736F7200626C6F6339
:1013D0006B6965727421005461737465722069735E
:1013E00074007374616E642E00496C6C6567616C87
:1013F0006572205A752D004645484C455200204DD7
:10140000454E55005345435245540065696E6D6124
:101410006C20736568656E3F004C6576656C2032A4
:10142000206E6F63680045726B6C9472756E6720F6
:101430006681720057696C6C7374206475206469EE
:101440006500202076657273756368656E3F0020C5
:1014500020202065696E6D616C004C6576656C209E
:1014600032206E6F63680057696C6C73742064750A
:101470002064656E00202076657273756368656E02
:101480003F00206E6F63682065696E6D616C00209F
:1014900057696C6C737420647520657300646173A4
:1014A00020537069656C3F004B656E6E7374204409
:1014B0007500447281636B65205461737465722199
:1014C0000000007F00000003FFC000000700700064
:1014D00000383E08000060E6060000C183030000FB
:1014E000833D818001037C80800303558040060397
:1014F0000380600401FF80600C07C1F0300C0E0017
:1015000038301873E7C61818C7FFF318109FFFF993
:1015100098103F81FC981959831E9809F7C3A3902E
:101520000DC5C361B00F87C3E1F01F87C7E1781114
:1015300087FFE11813C7CFE24813C781E38817C7B5
:1015400001C3E811B2018988113E00FC980D3E01EB
:10155000FCB0073F01F8F0031F81F0C0010FC3F09A
:10156000800107FFE18000C0FF060000607E0C00E4
:1015700000383A1800000E6F700000033CC00000F5
:1015800000FE000000003C00006765737069656C38
:101590007421005A75206C616E676500547363682E
:1015A000817373001A001B004F4B004E6F206C6F4D
:1015B0006720656E7472696573003A002F002E0013
:1015C000202A2A2A2A002A2A2A2A2000616C6C2032
:1015D0006C6F67733F0077616E7420746F20646571
:1015E0006C65746500446F20796F75207265616C5D
:1015F0006C79002E002E003A003A0056002E00565C
:101600006F6C743A202020202000436F6E7472614A
:1016100073743A200031323334353637383930314B
:1016200032333400313233343536373839303132B1
:1016300033340048656C6C6F2C20576F726C6421DA
:1016400000566F6C743A2020202020004272696797
:1016500068743A2000313233343536373839303116
:101660003233340031323334353637383930313271
:1016700033340048656C6C6F2C20576F726C64219A
:1016800000533D005A3D00593D00583D00507269DD
:101690006E63657373205065616368004B6F6F7094
:1016A000612054726F6F706572004D757368726F50
:1016B0006F6D0043617264205549443A004E6F20BB
:1016C00052464944206361726421007F4141417F59
:1016D0003E5B4F5B3E3E6B4F6B3E183C783C1818B0
:1016E0003C7E3C181C577D571C1C5E7F5E1C007E98
:1016F00043437E007E73737E007E7F7F7E7F414109
:10170000417F30483A060E06297929067F4141413A
:101710007F60703F02042A1C361C2A7F3E1C080092
:1017200000081C3E7F14227F22143C3C3C7EFF18A4
:10173000423C817E3E6375633E3E616B633E3E6329
:101740006B6B3E04027F020410207F201008082AE1
:101750001C08081C2A0808143E5541226375697547
:10176000637F7F7F7F7F444E7F404000000000000A
:1017700000005F00000007000700147F147F14249E
:101780002A7F2A1223130864623649562050000823
:10179000070300001C2241000041221C002A1C7F7C
:1017A0001C2A08083E080800807030000808080855
:1017B00008000060600020100804023E5149453EC8
:1017C00000427F400072494949462141494D331842
:1017D00014127F1027454545393C4A49493141217A
:1017E0001109073649494936464949291E0000145E
:1017F00000000040340000000814224114141414A6
:1018000014004122140802015909063E415D594E57
:101810007C1211127C7F494949363E414141227F69
:101820004141413E7F494949417F090909013E4102
:101830004151737F0808087F00417F4100204041EB
:101840003F017F081422417F404040407F021C023C
:101850007F7F0408107F3E4141413E7F0909090610
:101860003E4151215E7F09192946264949493203E3
:10187000017F01033F4040403F1F2040201F3F4069
:1018800038403F6314081463030478040361594922
:101890004D43007F41414102040810200041414175
:1018A0007F0402010204404040404000030708005A
:1018B00020545478407F28444438384444442838DD
:1018C0004444287F385454541800087E090218A450
:1018D000A49C787F0804047800447D4000204040A8
:1018E0003D007F1028440000417F40007C047804C4
:1018F000787C080404783844444438FC18242418BC
:1019000018242418FC7C0804040848545454240463
:10191000043F44243C4040207C1C2040201C3C4090
:1019200030403C44281028444C9090907C446454AF
:101930004C440008364100000077000000413608A2
:101940000002010204023C2623263C1EA1A16112D2
:101950003A4040207A3854545559215555794121FF
:1019600054547841215554784020545579400C1EE8
:101970005272123955555559395454545939555490
:1019800054580000457C410002457D420001457CE1
:1019900040F0292429F0F0282528F07C54554500F2
:1019A0002054547C547C0A097F49324949493232D7
:1019B00048484832324A4848303A4141217A3A420E
:1019C000402078009DA0A07D39444444393D4040EA
:1019D000403D3C24FF2424487E4943662B2FFC2FA6
:1019E0002BFF0929F620C0887E0903205454794131
:1019F0000000447D413048484A32384040227A0055
:101A00007A0A0A727D0D19317D2629292F28262967
:101A100029292630484D40203808080808080808B9
:101A200008382F10C8ACBA2F102834FA00007B00F9
:101A30000008142A142222142A1408AA005500AA05
:101A4000AA55AA55AA000000FF00101010FF0014AC
:101A50001414FF001010FF00FF1010F010F0141409
:101A600014FC001414F700FF0000FF00FF1414F42E
:101A700004FC141417101F10101F101F1414141F2F
:101A800000101010F0000000001F101010101F10A8
:101A9000101010F010000000FF10101010101010A7
:101AA0001010FF10000000FF140000FF00FF0000F6
:101AB0001F10170000FC04F414141710171414F46A
:101AC00004F40000FF00F714141414141414F700A5
:101AD000F7141414171410101F101F141414F414F6
:101AE0001010F010F000001F101F0000001F140065
:101AF0000000FC140000F010F01010FF10FF141490
:101B000014FF141010101F00000000F010FFFFFF62
:101B1000FFFFF0F0F0F0F0FFFFFF0000000000FF1B
:101B2000FF0F0F0F0F0F38444438447C2A2A3E140D
:101B30007E02020606027E027E0263554941633838
:101B400044443C04407E201E2006027E020299A5E9
:101B5000E7A5991C2A492A1C4C7201724C304A4D47
:101B60004D303048784830BC625A463D3E4949497C
:101B7000007E0101017E2A2A2A2A2A44445F444425
:101B800040514A444040444A51400000FF0103E0B4
:101B900080FF000008086B6B083612362436060FEB
:101BA000090F06000018180000001010003040FF58
:101BB0000101001F01011E00191D1712003C3C3CD1
:101BC0003C00000000000000200023002600290047
:101BD000000000010200090A0000000004030807D9
:101BE00000000000000000000000000000000000F5
:101BF00030004A4211241FBECFEFD0E4DEBFCDBF7C
:101C000014BE0FB6F894A895809160008861809307
:101C10006000109260000FBE12E0A0E0B1E0EAEEBA
:101C2000FCE800E00BBF02C007900D92AC3EB1078C
:101C3000D9F727E0ACEEB2E001C01D92A635B2079D
:101C4000E1F71DE0CAEFDDE004C02197FE010E942C
:101C50005146C93FD107C9F70E94AB2C0C9473467B
:101C60000C9400006F927F928F929F92AF92BF92DE
:101C7000CF92DF92EF92FF920F931F93CF93DF9358
:101C8000CDB7DEB72C970FB6F894DEBF0FBECDBF31
:101C900082E08B8786E28C878CE10E943A28682F4D
:101CA0006F778CE10E94582887E08A87E12C8E01AB
:101CB000065F1F4F9E01255F3F4FAE014F5F5F4F95
:101CC00061E0CE010C960E94BC288130910541F460
:101CD0002B85223019F42A85222311F082E090E02E
:101CE000813039F0833029F060E070E080E090E0EE
:101CF000E0C08CE10E943A28682F6F778CE10E9447
:101D00005828F7E0BF2E83E98983FF24F394812CC0
:101D100070E7A72EE3E09E2E712C972D97709B877E
:101D200080E2890F8A8381E0911101C080E022E086
:101D3000622E680EBA86FE0133966F01EB846E2D1B
:101D40006295607F6E0D8AE10E9458288E01055FC2
:101D50001F4F9E01265F3F4FA601662DCE010196C3
:101D60000E94BC288330910579F48CE10E943A28C6
:101D700085FDBACFF2E0F7150CF4B6CF8B81846005
:101D80008B8393E0792EC9CF8130910509F07BC018
:101D900080E27816F9F040E2742EAA829C818B8151
:101DA00089279D8189279E8189278F83AE01485F7E
:101DB0005F4F67E0CE0101960E947D28813091053A
:101DC00009F061C01B869A86CE0107966C0139E046
:101DD000632EB4CF8B81883819F032E024E002C042
:101DE00033E023E080E090E0682D70E0FC01E60F36
:101DF000F71FE15EF84F432F480FA1E0B0E0AC0FB2
:101E0000BD1FA40FB11D4C9141830196821770F341
:101E10008A85833009F068CF8B85811165CFAE014B
:101E20004D5F5F4F61E0C6010E947D2881309105C2
:101E300051F59B81F6018181981356CF9C81828157
:101E4000981352CF808182FF15C0F394F2E0FF1205
:101E500005C085E9898363E0862E5ECF83E0F812B2
:101E600005C087E9898356E0852E56CF91E0F912A7
:101E70003BCF49CF80932A078F2D880FF80EF3941C
:101E8000F0921F0703C0813009F02ECFE0E2F7E0A7
:101E9000C12CD12C7601FE2CED2CDC2CCC24819194
:101EA000C82A87E0E432F807B1F70E948929B60111
:101EB000C7012C960FB6F894DEBF0FBECDBFDF91E1
:101EC000CF911F910F91FF90EF90DF90CF90BF9037
:101ED000AF909F908F907F906F9008952F923F9238
:101EE0004F925F926F927F928F929F92AF92BF922A
:101EF000CF92DF92EF92FF920F931F93CF93DF93D6
:101F0000CDB7DEB72E970FB6F894DEBF0FBECDBFAC
:101F1000FC017096E437F10508F0BCC0FA017A8341
:101F200069831C01EE0FFF1FE058FE4F220F331F85
:101F30000190F081E02DE20FF31F208131813E8777
:101F40002D87F901E490F12C3196049110E04701BE
:101F500095948794C70107969C0193E03595279542
:101F60009A95E1F73C832B83412C512C612C712CE9
:101F7000A7014150510958874F83601B710B7A8725
:101F80006987B101681979097C876B8760167106CA
:101F90000CF072C092012E5F3F4F80E090E0AE14D3
:101FA000BF04E4F4FC0153E0F595E7955A95E1F799
:101FB000E20FF31FAD85BE85EA0FFB1FE491F0E051
:101FC000AC014770552760E870E002C075956795D1
:101FD0004A95E2F7E623F723EF2B19F0CF80D88458
:101FE00021C00196DCCFF60143E0F595E7954A95CF
:101FF000E1F7E20FF31FAD85BE85EA0FFB1FE49109
:10200000F0E0A6014770552760E870E002C07595C2
:1020100067954A95E2F7E623F723EF2B41F471E049
:10202000C71AD108AFEFCA16DA06E9F61DC08C153B
:102030009D05D4F45C01E985FA85E60DF71DFE8364
:10204000ED83CA14DB0484F06B857C856A0D7B1DEF
:1020500020E030E04D815E818DE297E00E94051B1B
:10206000FFEFAF1ABF0AEDCF2FEF621A720A4B8152
:102070005C81440E551E8ACF4D855E854E5F5F4F55
:1020800069817A81601B710B9701C10188199909D7
:102090000E9430232E960FB6F894DEBF0FBECDBF40
:1020A000DF91CF911F910F91FF90EF90DF90CF9034
:1020B000BF90AF909F908F907F906F905F904F9068
:1020C0003F902F9008958093EF021092F0021092AB
:1020D000F102823011F0843021F491E09093F20209
:1020E00002C01092F2028350833048F440930203FE
:1020F0005093030360930403709305030895409382
:10210000FE025093FF026093000370930103089551
:102110000E940E1F21E0892B09F020E0822F0895F4
:10212000CF92DF92EF92FF92CF93C82F0E941D2093
:102130006B017C010E941D20AB01BC014C195D09A3
:102140006E097F0940395F456140710590F48C2F1D
:102150000E9488108111EECF64E170E080E090E091
:102160000E94E31F8C2F0E9488108111E3CF81E031
:1021700004C081E080938C0380E0CF91FF90EF90CA
:10218000DF90CF9008958F929F92AF92BF92EF927F
:10219000FF921F93CF93DF937C01EB010E941D20E0
:1021A0004B015C0110923A071092390788E290E0E7
:1021B00090933C0780933B0710923E0710923D0797
:1021C00081E090E09093400780933F07F701808182
:1021D000882339F0C7010E94682A86EA95E10E94A7
:1021E0006A2AFE0101900020E9F7CF018C1B9D0BAC
:1021F00046E0489F9001499F300D112484E590E00E
:10220000821B930B90933A078093390788E290E002
:1022100090933C0780933B078881882339F084EAB8
:1022200095E10E946A2ACE010E94682A81E090E02E
:1022300090933E0780933D079093400780933F071C
:102240000E94E1290E941D20DC01CB018819990917
:10225000AA09BB0980399F45A140B105A0F489E1D5
:102260000E948810182F882391F0F701808188231D
:1022700071F064E170E080E090E00E94E31F89E18A
:102280000E94901016C081E080938C0311C08AE1F7
:102290000E9488108823B1F28881882399F264E132
:1022A00070E080E090E00E94E31F8AE10E949010BD
:1022B00010E0812FDF91CF911F91FF90EF90BF90A1
:1022C000AF909F908F90089564E572E089E592E069
:1022D0000C94C3108BE10E94881081110BC08AE11D
:1022E0000E948810811108C089E10E948810811124
:1022F00005C008958BE108958AE1089589E1089564
:10230000CF92DF92EF92FF92CF930E941D206B013C
:102310007C010E941D20DC01CB018C199D09AE09B6
:10232000BF0980329E44A105B10598F40E946A114C
:10233000C82F882371F364E170E080E090E00E9490
:10234000E31F8C2FCF91FF90EF90DF90CF900C94F4
:10235000901080E0CF91FF90EF90DF90CF900895A4
:102360008EE580937C0062E370E080E090E00E9464
:10237000E31F80917A00806480937A0080917A00D4
:1023800086FDFCCF209178003091790040E050E04C
:102390006CE97BE881E190E00E943043CA01B90119
:1023A0006B5F7F4F8F4F9F4F2AE030E040E050E05F
:1023B0000E943043C901089581E08093110488E1AF
:1023C000809332041092100710920F0782E090E081
:1023D0000E94C1290E944D24882319F083E0809334
:1023E0008F0367E088E10E9409241092120780930E
:1023F0001107873019F083E080938F0383E197E022
:102400000E94231E909389038093880383E197E0C1
:102410000E94231E20E030E0382F809188039091A5
:102420008903282B392B309389032093880383E178
:1024300097E00E94231E909387038093860383E195
:1024400097E00E94231E20E030E0382F8091860321
:1024500090918703282B392B309387032093860391
:1024600083E197E00E94231E909385038093840369
:1024700083E197E00E94231E20E030E0382F809116
:10248000840390918503822B932B209188033091B4
:10249000890346E0359527954A95E1F730938903FE
:1024A00020938803209186033091870356E0359569
:1024B00027955A95E1F7309387032093860366E0CA
:1024C000959587956A95E1F79093850380938403AA
:1024D00083E197E00E94231E9093C0038093BF0383
:1024E0000895CF93C62F91E09093110498E19093B3
:1024F00032041092100710920F07682F83E197E0C3
:102500000E946F1E6C2F83E197E00E946F1E0E9455
:102510004D24882319F083E080938F03CF91089591
:10252000CF92DF92EF92FF920F931F93CF93DF939F
:10253000CDB7DEB727970FB6F894DEBF0FBECDBF7D
:102540000FB6F894A8958091600088618093600030
:10255000109260000FBE809160008F7B80936000BE
:102560000E941D2061367A4E8105910520F08091F0
:10257000EC02882341F080918F03811104C0809187
:102580008D03823020F1CE0101960E94AA24CE0153
:1025900001960E94CA21AE014F5F5F4F0E943F2B00
:1025A00081E090E00E94122C082F82E090E00E94CF
:1025B000122C10E0102F0027082B0F3F2FEF1207CF
:1025C00009F485C0083E83E0180708F482C060EC77
:1025D00081E10E9471120E949B2A0E94E12984E2FB
:1025E0000E94C6291092BC0060E08AE00E94371F5A
:1025F00060E089E00E94671F60E088E00E94671F3A
:1026000060E086E00E94671F60E085E00E94671F2F
:1026100060E087E00E94671F60E082E00E94671F21
:1026200060E083E00E94671F60E085E00E94671F12
:1026300060E087E00E94671F60E08FE10E94671FF3
:1026400060E08DE00E94671F60E08EE10E94671FDE
:1026500060E08AE00E94671F60E08BE00E94671FD5
:1026600010927A007894809168008160809368006D
:1026700080916B008E6080936B0083B7817F846054
:1026800083BF83B7816083BF889583B78E7F83BF05
:1026900098E088E10FB6F894A895809360000FBE8B
:1026A0009093600068EE73E080E090E00E94E31F8A
:1026B00027960FB6F894DEBF0FBECDBFDF91CF9146
:1026C0001F910F91FF90EF90DF90CF90089500E061
:1026D00010E0EF80F12C2DE2E21AF10880E090E0AA
:1026E0000E94122C0115110521F090E0E816F90660
:1026F00001F16E2D80E090E00E94102C6801CC0C5E
:10270000DD1CCC0CDD1C60E0C60103960E94102C81
:102710000F5F1F4F60E0C60104960E94102C60E01E
:10272000C60105960E94102C6E2DC60106960E94C9
:10273000102C7801EE0CFF1CEE0CFF1C6E816695D0
:102740009D8128E0929FC0011124682BC701039648
:102750000E94102C0F5F1F4F8E8120E8829FC001C6
:1027600011246B81682BC70104960E94102C809164
:102770008B038A3018F089E080938B0380918A0361
:102780008A3018F089E080938A0380918D0382302B
:1027900018F48FE080938A0380918F03882351F08F
:1027A00083E080938D038EE080938A0380918F0372
:1027B00080938B0320918B0380E1289F900111244B
:1027C00060918A03622BC70105960E94102C0E941B
:1027D0001D2020E63AEE40E050E00E9462438091E6
:1027E0008D03833010F460E001C060E8622BC70104
:1027F00006960E94102C612F81E090E00E94102C20
:10280000602F82E090E00E94102CE1CECF93DF9306
:10281000C82F0E949B2A82E08093410710923A07BA
:102820001092390788E090E090933C0780933B0733
:102830008CE995E10E948F2A81E080934107CC23A7
:10284000F1F0C2E1D0E0D0933A07C093390780E2BB
:1028500090E090933C0780933B0783E995E10E94C9
:102860008F2AD0933A07C093390788E290E090937B
:102870003C0780933B0789E895E10E948F2A0E94DC
:10288000E1290E94E12980E00E948011DF91CF912F
:102890000C9490121F920F920FB60F9211240F906A
:1028A0000FBE0F901F9018959C010FB6F894A89535
:1028B00080916000886180936000109260000FBE7C
:1028C0002115310511F099E001C097E0892F88703A
:1028D00011F488E001C088E29770982B88E10FB668
:1028E000F894A895809360000FBE9093600091E0EB
:1028F0002230310508F090E09093BE038091600093
:1029000080648093600008951F920F920FB60F921B
:1029100011240BB60F922F933F934F935F936F93B6
:102920007F938F939F93AF93BF93EF93FF93809188
:10293000600080648093600078940E941D2061385C
:102940007E4E8643910518F081E00E940614809126
:10295000BE03882331F08091ED0280938F030E94A3
:102960009012FF91EF91BF91AF919F918F917F91C5
:102970006F915F914F913F912F910F900BBE0F90F0
:102980000FBE0F901F9018952F923F924F925F921B
:102990006F927F928F929F92AF92BF92CF92DF926F
:1029A000EF92FF920F931F93CF93DF93CDB7DEB7D4
:1029B00062970FB6F894DEBF0FBECDBFB2E6CB2E46
:1029C000B2E0DB2E17E6E12E12E0F12E01E712E075
:1029D0002DE732E047E852E06BE872E080E090E0FB
:1029E0000E94DB2682309105C1F03CF4009781F013
:1029F000019709F094C58AE08FC58430910509F4E8
:102A00007FC20CF410C1059709F089C58BE084C51D
:102A100082E080938D0386E07FC581E090E00E9494
:102A2000122CE82E82E090E00E94122CF12CFE2C59
:102A3000EE24E82AC7010196029770F50E949B2AAE
:102A40008BEA95E10E948F2A10923E0710923D0773
:102A500001E010E01093400700933F0784E290E00C
:102A600090933A078093390788E290E090933C076F
:102A700080933B0788EA95E10E946A2A10933E07FB
:102A800000933D071093400700933F070E94E12900
:102A900080E00E94801146C500E010E0370151E05F
:102AA000651A71080E151F050CF03CC517FD3AC5D7
:102AB0000E949B2A68012FEFC21AD20ACC0CDD1C9F
:102AC000CC0CDD1C5801480134E0830E911CC4017C
:102AD000681479040CF4C3018A159B050CF495C0A5
:102AE000C60101970E94122C382E4FEFA41AB40A87
:102AF000C6010E94122C282EC60101960E94122C9B
:102B0000582EC60102960E94122C482E311015C074
:102B1000211013C0511011C086EC95E10E946A2A61
:102B2000842D90E06AE070E08152984F0E94F82A6C
:102B300080EC95E10E948F2A64C0832D869586954E
:102B4000869590E00E944D2C8EEB95E10E946A2ABA
:102B5000832D8770382E330C822D881F8827881F7D
:102B6000832990E00E944D2C8CEB95E10E946A2A0B
:102B7000822D8F7190E00E944D2C8AEB95E10E948E
:102B80006A2A852D90E06AE070E0E4E096958795EA
:102B9000EA95E1F70E94F82A552D5F70552E89E0DD
:102BA000851728F06AE070E0852F90E00CC09EE069
:102BB000591305C083E992E00E94682A06C06AE0C2
:102BC00070E080E090E00E94F82A47FE06C02EE008
:102BD000521649F08CE592E00BC03FE0531631F0FD
:102BE0008EE592E005C085E192E002C080E692E0C9
:102BF0000E94682A842D8F7790E00E944D2C0E94BD
:102C00008B2A44E0C40ED11C62CF62EF71E080E0F9
:102C100092E00E94C310811103C00B5F1F4F42CF8F
:102C2000055011093FCF0E949B2A85EE95E10E9435
:102C30008F2A86ED95E10E948F2A8CEC95E10E9407
:102C40008F2A65E972E088E992E00E94C310882328
:102C500009F468C460E081E090E00E94102C60E01C
:102C600082E090E00E94102C5DC4833091050CF04E
:102C700065C1009709F05DC1CE0101960E94AA24AA
:102C8000CE0101960E94CA21AE01485F5F4F0E94AB
:102C90003F2B0E941D204B015C010E941D202B0137
:102CA0003C018E858D3210F48DE28E870E94B0112A
:102CB0001C01C12CD12C00E010E0EE24E394F12C97
:102CC0000E941D20DC01CB0188199909AA09BB09C2
:102CD00080399F45A140B10508F027C20E941D2000
:102CE000DC01CB0184199509A609B709893E9340F7
:102CF000A105B10538F00E94B0111C010E941D20F1
:102D00002B013C0180918C03882319F080E00E9404
:102D100006140E949B2A48E150E050933A074093E2
:102D2000390788E290E090933C0780933B07C1010C
:102D300064E670E00E943D469B016C016AE070E031
:102D4000C9010E94F82A8DEF95E10E946A2AC60106
:102D50000E944D2C8BEF95E10E946A2A22E130E01F
:102D600030933A072093390710923C0710923B07A3
:102D7000F0923E07E0923D07F0924007E0923F0755
:102D80000115110521F410923E0710923D078A8526
:102D900090E00E944D2CF0923E07E0923D07F092A9
:102DA0004007E0923F0789EF95E10E946A2A0130CF
:102DB000110541F410923E0710923D071093400711
:102DC00000933F07898590E00E944D2CF0923E07CA
:102DD000E0923D07F0924007E0923F0787EF95E1D0
:102DE0000E946A2A0230110541F410923E071092A7
:102DF0003D07F0924007E0923F07888590E00E94EF
:102E00004D2CF0923E07E0923D07F0924007E09291
:102E10003F070E948B2A4CE050E050933A074093C2
:102E2000390788E090E090933C0780933B0703309C
:102E3000110541F410923E0710923D07F0924007B1
:102E4000E0923F078C8590E00E944D2CF0923E0767
:102E5000E0923D07F0924007E0923F0785EF95E151
:102E60000E946A2A0430110541F410923E07109224
:102E70003D07F0924007E0923F078D8590E00E9469
:102E80004D2CF0923E07E0923D07F0924007E09211
:102E90003F0783EF95E10E946A2A0530110541F44E
:102EA00010923E0710923D07F0924007E0923F07D4
:102EB0008E8590E06AE070E08E54984F0E94F82A68
:102EC000F0923E07E0923D07F0924007E0923F0704
:102ED0000E94E1290E946A11C82ED12CC114D1048C
:102EE00009F4EECE0E9490100E941D204B015C015F
:102EF00099E1C916D10461F50150110908F0E0CE3D
:102F00006CE9C62E62E0D62E73EAE72E72E0F72E49
:102F100008EA12E026EB32E041EC52E06BEC72E0A2
:102F200081E090E00E94DB268230910509F09DCE81
:102F30005CC1019709F0F3C214E10BC18430910523
:102F400009F43CC20CF4ABC1059709F4EBC2E7C22B
:102F50003AE1C316D10409F0A2C00F5F1F4F06303B
:102F600011050CF4ADCECE0108960E94CA21AE0127
:102F70004F5F5F4F0E943F2BFF24F394F0921104A8
:102F800008E6009332041092100710920F078FE0AA
:102F900090E00E94C12980E890E00E94C1290E942F
:102FA0004D24F092110400933204109210071092F5
:102FB0000F0780E090E00E94C12989811AE0612F0B
:102FC0000E943146692F40E1849F600D112483E106
:102FD00097E00E946F1E8A81612F0E943146692FFF
:102FE00050E1859F600D112483E197E00E946F1EE0
:102FF0008B81612F0E943146692F20E1829F600DF5
:10300000112483E197E00E946F1E8C81612F0E9442
:103010003146692F30E1839F600D112483E197E0F1
:103020000E946F1E8D81612F0E943146692F40E101
:10303000849F600D112483E197E00E946F1E8E81B2
:10304000612F0E943146692F50E1859F600D112448
:1030500083E197E00E946F1E8F818E51612F0E9445
:103060003146692F20E1829F600D112483E197E0B2
:103070000E946F1E0E944D24F092110400933204AE
:103080001092100710920F078FE090E00E94C12964
:1030900080E090E00E94C1290E944D2431CF02308F
:1030A000110501F13CF40115110561F00130110524
:1030B00089F006CE0430110531F1E4F00530110538
:1030C00059F1FECD8A858F5F883110F48A87F8CD5B
:1030D0001A86F6CD89858F5F8C3310F48987F0CD01
:1030E0001986EECD88858F5F8C3310F48887E8CD04
:1030F0001886E6CD8C858F5F803210F48C87E0CD0A
:1031000031E03C87DDCD8D858F5F8D3010F48D876C
:10311000D7CD41E04D87D4CD8E858F5F823410F4BA
:103120008E87CECD5DE25E87CBCD3AE1C316D1046A
:1031300009F0E6CE18CF0E94901049E1E416F104A0
:1031400009F04CC0115062E370E080E090E00E9412
:10315000E31F0E94B0117C01812F0E94F8250E947C
:103160009B2A83E396E10E948F2A84E296E10E94E3
:103170008F2A85E196E10E948F2A0E948B2A8AE09D
:1031800096E10E946A2A812F90E0A0E0B0E04AE038
:10319000BC01CD010E94AC2A0E948B2A8FEF95E1E1
:1031A0000E946A2AB701FF0C880B990B0E94AF445A
:1031B00020E030E048EC52E40E94054442E00E94E6
:1031C00024250E948B2A0E94E1290E946A11E82E80
:1031D000F12CE114F10409F0AECFB5CF5AE1E516B8
:1031E000F10409F08DCE1F5FAECF18E70E94B01139
:1031F0007C01812F90E00E9407260E949B2A83E792
:1032000096E10E948F2A84E696E10E948F2A85E546
:1032100096E10E948F2A0E948B2A8CE496E10E94FC
:103220006A2A812F90E0A0E0B0E04AE0BC01CD0125
:103230000E94AC2A0E948B2A81E496E10E946A2AAD
:10324000B701FF0C880B990B0E94AF4420E030E0DF
:1032500048EC52E40E94054442E00E9424250E946A
:103260008B2A0E94E1290E946A11E82EF12CE114B8
:10327000F10471F00E94901089E1E816F10411F454
:10328000115006C09AE1E916F10409F039CE1F5F2A
:1032900062E370E080E090E00E94E31FA7CF60E46B
:1032A00081E10E94711268E080E10E9471120E9427
:1032B000DC110E949B2A8AE896E10E946A2A80918A
:1032C0008803909189030E94DA2387E896E10E949F
:1032D0006A2A80918603909187030E94DA2384E80A
:1032E00096E10E946A2A80918403909185030E944E
:1032F000DA2381E896E10E946A2A6091880370913E
:103300008903072E000C880B990B0E94AF442B01F8
:103310003C016091860370918703072E000C880B97
:10332000990B0E94AF444B015C0160918403709142
:103330008503072E000C880B990B0E94AF446B018C
:103340007C01A3019201C301B2010E9464452B01DB
:103350003C01A5019401C501B4010E9464459B0193
:10336000AC01C301B2010E9494434B015C01A7016F
:103370009601C701B6010E9464459B01AC01C501DD
:10338000B4010E9494430E94D7450E947744CB0128
:103390000E94DA230E94E12968EC70E080E090E06E
:1033A0000E94E31F0E946A11882309F480CF0E94C3
:1033B000901060EC81E10E947112A2CD0E941D204C
:1033C0006F87788B898B9A8B0E947426812C912C25
:1033D00054010E941D20DC01CB012F8538894989C9
:1033E0005A89821B930BA40BB50B893B9848A10506
:1033F000B10508F08CC00E941D20DC01CB018819AA
:103400009909AA09BB0989389341A105B10560F062
:103410000E949B2A8DEB96E10E948F2A0E94E1294F
:103420000E941D204B015C010E94320E6B017C0149
:10343000672B682B692B09F45DC00E9489290E94C3
:103440001D206F87788B898B9A8B0E949B2A83EB38
:1034500096E10E948F2AB601C70138E0A32EB12C55
:10346000412C512C612C40E1742EA30192010E9449
:1034700062434B018C0160E170E0C9010E94F82AAF
:10348000B401C80124E076946794579447942A9530
:10349000D1F751E0A51AB10841F70E948B2A84E8C0
:1034A000C8168AE9D8068DEAE80683E4F80619F416
:1034B0008AEA96E117C094E8C91692E8D9069EE711
:1034C000E90693E7F90619F48CE996E10BC024E8C4
:1034D000C21622E8D2062EEAE20623EFF20621F413
:1034E0008DE896E10E948F2A0E941D204B015C010D
:1034F0000E94E12962E370E080E090E00E94E31F17
:103500000E946A11882309F464CF0E94901060E041
:103510008AE00E94371FF4CC80938E0303C081E0C1
:1035200080938F0362960FB6F894DEBF0FBECDBFB7
:10353000DF91CF911F910F91FF90EF90DF90CF908F
:10354000BF90AF909F908F907F906F905F904F90C3
:103550003F902F900895CF92DF92EF92FF920F93BA
:103560001F93CF93DF936C017A018B01C0E0D0E011
:10357000CE15DF0589F0D8016D918D01D601ED9151
:10358000FC910190F081E02DC6010995892B11F481
:103590007E0102C02196ECCFC701DF91CF911F9130
:1035A0000F91FF90EF90DF90CF90089590E0FC0195
:1035B0003197EA30F10540F5E959FF4F0C94514637
:1035C000809180008F7703C0809180008F7D8093F1
:1035D0008000089584B58F7702C084B58F7D84BD47
:1035E00008958091B0008F7703C08091B0008F7DE7
:1035F0008093B0000895809190008F7703C08091F0
:1036000090008F7D809390000895FB0164357105D3
:10361000A0F54033510588F5BA0183E075956795AB
:103620008A95E1F747705527232B99F024E5269FCB
:10363000C001279F900D1124E80FF91FE658FB4F9A
:1036400081E090E001C0880F4A95EAF79081892BCC
:1036500013C024E5269FC001279F900D1124E80F79
:10366000F91FE658FB4F81E090E001C0880F4A95B2
:10367000EAF78095908189238083089508952F9299
:103680003F924F925F926F927F928F929F92AF92F2
:10369000BF92CF92DF92EF92FF920F931F93CF933F
:1036A000DF93CDB7DEB72D970FB6F894DEBF0FBE10
:1036B000CDBFFC016A3069F424898685978538E09E
:1036C000239F800D911D1124978786871586148668
:1036D000E4C06D3009F4E1C09D878C87548959831B
:1036E000828993899D838C83A089B189BF83AE83AE
:1036F00086849784C484D58480859185C816D9062C
:10370000BCF0EC85FD854489242F30E084859585C7
:10371000F6E04F9F800D911D1124AC85BD851D964F
:103720009C938E931C9756964C91411192C0B5C0B4
:10373000EC85FD85828593858816990614F7F981B5
:10374000AF2EB12CC60125E0F29F800D911D1124F2
:1037500018161906B4F6C50123E0880F991F2A959B
:10376000E1F7880D991D181619065CF655E0659F5E
:10377000B001112416011B82CB018C199D09998778
:103780008887D4011896BB87AA87BB81B53049F0DA
:10379000E885F985E20DF31DE553F94E24912A835E
:1037A00001C01A82240134013A8130FF13C0AC8574
:1037B000BD85ED91FC91B981B13031F40084F18582
:1037C000E02D2E813F8119C00488F589E02DEE801F
:1037D000FF801EC0EC81FD812E813F81E217F3073F
:1037E000F1F0AC85BD85ED91FC91B981B13059F412
:1037F0000084F185E02D2C813D81A301B1018C85F0
:103800009D8509950CC00488F589E02DEC80FD802C
:1038100085019501A201B6018C859D850995EA81F6
:10382000E695EA83FFEF6F1A7F0A4A0C5B1C2A8534
:103830003B856216730609F0B7CF3B813F5F3B8340
:103840005FEF251A350ACA0CDB1C363009F09DCF14
:1038500058CF4AEF4203B001439F700D1124AC854D
:10386000BD8518964D915C911997460F571F4817C3
:1038700059079CF483E0220F331F8A95E1F71E96C7
:103880008D919C911F97280F391F1F963C932E9363
:103890001E971D961C921E921C9781E090E02D961B
:1038A0000FB6F894DEBF0FBECDBFDF91CF911F9151
:1038B0000F91FF90EF90DF90CF90BF90AF909F90CF
:1038C0008F907F906F905F904F903F902F900895D2
:1038D000EF92FF920F931F93DC01ED91FC911197F2
:1038E0001A960D911C911B9718962D913C91199742
:1038F0000488F589E02D7B0140E050E060E070E055
:1039000009951F910F91FF90EF9008956F927F920C
:103910008F929F92AF92BF92CF92DF92EF92FF92DF
:103920000F931F93CF93DF936C015A014801EB0172
:103930003B01620E731EC615D70574F4D601ED91D6
:10394000FC910684F785E02D87019401A501BE0155
:10395000C60109952196EFCFDF91CF911F910F916D
:10396000FF90EF90DF90CF90BF90AF909F908F909F
:103970007F906F900895EF92FF920F931F93DC0159
:10398000ED91FC91260F371F215031090484F585F4
:10399000E02D78018A0109951F910F91FF90EF901A
:1039A0000895EF92FF920F931F937801DC01ED9140
:1039B000FC91240F351F8901015011090484F585FC
:1039C000E02D9B0109951F910F91FF90EF900895B5
:1039D0006F927F928F929F92AF92BF92CF92DF921F
:1039E000EF92FF920F931F93CF93DF93EC014B0164
:1039F0005A0169013801E881F9810088F189E02DD7
:103A000087010995E881F981A501460D571D4150AF
:103A100051090088F189E02D9601B401CE01099584
:103A2000E881F9810684F785E02D9301A501B401B1
:103A3000CE010995E881F981C80CD91CB601615005
:103A400071090684F785E02D9301A501CE01099542
:103A5000DF91CF911F910F91FF90EF90DF90CF906A
:103A6000BF90AF909F908F907F906F9008952F920E
:103A70003F924F925F926F927F928F929F92AF92FE
:103A8000BF92CF92DF92EF92FF920F931F93CF934B
:103A9000DF9300D01F92CDB7DEB74C017B836A83E2
:103AA0006A01590117019801241B350B37FF03C028
:103AB000319521953109C5014A815B81841B950BA4
:103AC00097FF03C091958195910951E05983821721
:103AD000930714F019820BC09A2D8B2D5801092FD2
:103AE000182F9A818B81DB82CA82C92ED82E8A81B7
:103AF0009B81A816B9065CF49C2D8D2D6801092FB9
:103B0000182F9A818B81BB82AA82A92EB82E2501FB
:103B1000AA81BB814A1A5B0A38016C187D0877FEBE
:103B200003C0719461947108720157FE03C0BFEF26
:103B3000EB1AFB0AF594E794C016D1061CF00FEFC0
:103B40001FEF1FC001E010E01CC0D401ED91FC91FB
:103B5000B9810084F185E02D9101BB23C1F04A8138
:103B60005B81B601C4010995E618F708F7FE04C0A9
:103B7000C00ED11EE40CF51CEA81FB813196FB835B
:103B8000EA834A815B81A416B506FCF604C0A6014F
:103B90006A817B81E7CF0F900F900F90DF91CF91DB
:103BA0001F910F91FF90EF90DF90CF90BF90AF905B
:103BB0009F908F907F906F905F904F903F902F904D
:103BC000089585ED8093BC008091BC0084FDFCCFFE
:103BD0001092790408954091E303262F30E0240FDA
:103BE000311D21323105DCF4209179042430C9F4EF
:103BF000FC0180E090E0861758F43091E3032191B6
:103C0000DC01AF53BC4FA30FB11D2C930196F3CF32
:103C10008091E303680F6093E30380E0089581E0FF
:103C2000089582E008950895E091120780911107A8
:103C3000E81730F4F0E0ED5CFB4F808190E00895F0
:103C40008FEF9FEF089590911207809111079817B9
:103C500050F4E92FF0E0ED5CFB4F208130E09F5FF6
:103C60009093120702C02FEF3FEFC9010895809192
:103C7000110790E020911207821B91090895CF92BD
:103C8000DF92EF92FF920F931F93CF93DF937C010C
:103C9000262F972F8A0180911104882391F0C62F37
:103CA000D72F6E01C40ED51ECC15DD0571F06991BC
:103CB000D701ED91FC910190F081E02DC7010995AC
:103CC000F3CF642F822F0E94EB1DC801DF91CF91AB
:103CD0001F910F91FF90EF90DF90CF900895CF93B9
:103CE000DF931F92CDB7DEB76983209111042223A1
:103CF000D1F020910F07203240F021E030E0FC01AC
:103D00003383228380E090E015C080911007E82F74
:103D1000F0E0EE5EFB4F998190838F5F80931007F8
:103D200080930F0705C061E0CE0101960E94EB1D54
:103D300081E090E00F90DF91CF910895089580E0A9
:103D400090E008950E946E4682E796E00E94BB22B2
:103D500021E0892B09F420E0822F08951F920F9211
:103D60000FB60F9211240BB60F922F933F934F93E0
:103D70005F936F937F938F939F93AF93BF93EF93D3
:103D8000FF9382E796E00E948A2CFF91EF91BF910A
:103D9000AF919F918F917F916F915F914F913F91E3
:103DA0002F910F900BBE0F900FBE0F901F90189584
:103DB0001F920F920FB60F9211240BB60F922F93F2
:103DC0008F939F93EF93FF93E0918206F091830688
:103DD0008081E0918806F091890682FD12C0908171
:103DE00080918B068F5F8F7320918C06821751F024
:103DF000E0918B06F0E0EE58F94F958F80938B069B
:103E000001C08081FF91EF919F918F912F910F9031
:103E10000BBE0F900FBE0F901F901895CF93DF939E
:103E2000282F30E0F901E053F44E8491F901EC5170
:103E3000FA4FD491F901EC5FF94FC491CC2391F082
:103E400081110E94D61AEC2FF0E0EE0FFF1FEA530B
:103E5000F44EA591B491EC91ED2381E090E021F432
:103E600080E002C080E090E0DF91CF9108951F9341
:103E7000CF93DF93282F30E0F901E053F44E849183
:103E8000F901EC51FA4FD491F901EC5FF94FC4916B
:103E9000CC23C9F0162F81110E94D61AEC2FF0E026
:103EA000EE0FFF1FE053FA4FA591B4918FB7F8942E
:103EB000111105C09C91ED2FE095E92302C0EC9112
:103EC000ED2BEC938FBFDF91CF911F910895CF938E
:103ED000DF9390E0FC01EC51FA4F2491FC01EC5F80
:103EE000F94F8491882361F190E0880F991FFC01BC
:103EF000E652FA4FC591D491FC01E053FA4FA591D7
:103F0000B491611109C09FB7F894888120958223EC
:103F10008883EC912E230BC0623061F49FB7F89434
:103F20003881822F809583238883EC912E2B2C93CC
:103F30009FBF06C08FB7F894E8812E2B28838FBFD0
:103F4000DF91CF910895883028F0883110F08851A2
:103F500001C08FEF8770806480937C0080917A002D
:103F6000806480937A0080917A0086FDFCCF8091F6
:103F700078002091790090E0922B08953FB7F89453
:103F800080910D0490910E04A0910F04B091100443
:103F900026B5A89B05C02F3F19F00196A11DB11DA4
:103FA0003FBFBA2FA92F982F8827820F911DA11DDF
:103FB000B11DBC01CD0143E0660F771F881F991F1B
:103FC0004A95D1F708958F929F92AF92BF92CF9268
:103FD000DF92EF92FF926B017C010E94BE1F4B01AA
:103FE0005C01C114D104E104F104F1F00E94BE1F90
:103FF000DC01CB0188199909AA09BB09883E9340C5
:10400000A105B10570F321E0C21AD108E108F10859
:1040100088EE880E83E0981EA11CB11CC114D10447
:10402000E104F10419F7DDCFFF90EF90DF90CF901E
:10403000BF90AF909F908F9008952FB7F8946091A4
:10404000090470910A0480910B0490910C042FBF15
:1040500008951F920F920FB60F9211242F933F9342
:104060008F939F93AF93BF938091090490910A041B
:10407000A0910B04B0910C043091080426E0230FAA
:104080002D3720F40296A11DB11D05C029E8230F8C
:104090000396A11DB11D20930804809309049093F9
:1040A0000A04A0930B04B0930C0480910D0490912A
:1040B0000E04A0910F04B09110040196A11DB11D32
:1040C00080930D0490930E04A0930F04B0931004FA
:1040D000BF91AF919F918F913F912F910F900FBE04
:1040E0000F901F9018958EBD00000DB407FEFDCFF8
:1040F0008EB508951F920F920FB60F9211240BB632
:104100000F922F933F934F935F936F937F938F9370
:104110009F93AF93BF93EF93FF938091B900887FF4
:10412000803609F49CC068F5883209F45BC090F4CD
:10413000803109F454C038F4882309F4F6C088307B
:1041400009F44DC0F6C0883109F44CC0803209F43E
:104150005DC0EFC0803409F468C048F4803309F4CE
:1041600055C0883309F0E5C080937704D8C0803506
:1041700009F44FC0883509F45DC0883409F0D9C00E
:10418000D6C0883909F4C7C0A8F4883709F467C0D5
:1041900038F4883609F463C0803709F460C0C9C0B8
:1041A000883809F4B8C0803909F45FC0803809F054
:1041B000C0C05BC0803B09F486C038F4803A09F483
:1041C00066C0883A09F47FC0B4C0803C09F4A7C037
:1041D000883C09F4A4C0883B09F48AC0AAC0809135
:1041E000740410C09091760480917504981770F54E
:1041F000E091760481E08E0F80937604F0E0ED5A32
:10420000FB4F80818093BB0085EC86C08093770450
:104210008EC0E091760481E08E0F809376048091C9
:10422000BB00F0E0ED5AFB4F8083909176048091C3
:1042300075046EC0E091760481E08E0F8093760461
:104240008091BB00F0E0ED5AFB4F808380917804B1
:1042500081116DC081E08093730484EA61C083E0C2
:104260008093790410920704CFCF809107048032A5
:1042700008F051C0E091070481E08E0F809307049D
:104280008091BB00F0E0E951FC4F8083BDCF85EC0D
:104290008093BC001092790480910704803230F43E
:1042A000E0910704F0E0E951FC4F108260910704AF
:1042B00070E0E091E503F091E60387EE93E0099565
:1042C0001092070436C084E0809379041092E403CE
:1042D0001092E303E091E103F091E20309958091EC
:1042E000E303811105C081E08093E3031092C103D1
:1042F000E091E40381E08E0F8093E403F0E0EF535C
:10430000FC4F80818093BB009091E4038091E30394
:10431000981708F479CF85E88093BC000AC085EC33
:104320008093BC001092790404C0109277040E941C
:10433000E11DFF91EF91BF91AF919F918F917F917F
:104340006F915F914F913F912F910F900BBE0F9006
:104350000FBE0F901F9018951092790481E0809302
:1043600078041092730461E081E10E94371F61E0DC
:1043700080E10E94371FE9EBF0E080818E7F80832F
:1043800080818D7F808380E28093B80085E4809374
:10439000BC0008956F927F928F929F92AF92BF92CE
:1043A000CF92DF92EF92FF920F931F93CF93DF9301
:1043B000EC01EE81AE2FB0E020E833E341EE51E0B6
:1043C0000E944F434B015C0122EB37E0FD0104E604
:1043D00010E080E9E82EFF24F394C901825B974046
:1043E0008E179F07DCF4C90183709927892B99F4F4
:1043F000C901B8010E943D46892B31F4C901B701BA
:104400000E943D46892B39F480E8880E81E5981E8C
:1044100081E0A81EB11C2F5F3F4FDFCF6D80712C54
:10442000EE54F84FCF0164E670E00E943D467C01F7
:10443000CF0160E971E00E943D466C0101E010E0AF
:10444000E370FF27061517052CF50230110581F4DE
:10445000309771F4E114F10419F4C114D10441F45A
:1044600080E8880E8BE3981E86E2A81EB11C0FC060
:10447000D801AB55BE4FAC91B0E020E831E541E04A
:1044800050E00E944F43860E971EA81EB91E0F5F74
:104490001F4FD8CF49812A8130E0A0E1BEE00E94C1
:1044A00084436B017C01242F30E0ACE3B0E00E9438
:1044B0008443DC01CB018C0D9D1DAE1DBF1D2881E9
:1044C0006C017D01C20ED11CE11CF11CAC81B0E07D
:1044D000119720E831E541E050E00E945A43DC01A9
:1044E000CB018C0D9D1DAE1DBF1DBC01CD01680D06
:1044F000791D8A1D9B1DDF91CF911F910F91FF9018
:10450000EF90DF90CF90BF90AF909F908F907F9073
:104510006F900895FC01538D448D252F30E0842F3A
:1045200090E0821B930B541710F0CF9608950197DB
:104530000895FC01918D828D981761F0828DDF01C5
:10454000A80FB11D5D968C91928D9F5F9F73928F86
:1045500090E008958FEF9FEF0895FC01918D828D7B
:10456000981731F0828DE80FF11D858D90E0089548
:104570008FEF9FEF0895FC01918D228D892F90E0A0
:10458000805C9F4F821B91098F7399270895EF924A
:10459000FF920F931F93CF93DF93EC0181E0888FFD
:1045A0009B8D8C8D981305C0E889F989808185FDE4
:1045B00024C0F62E0B8D10E00F5F1F4F0F731127D5
:1045C000E02E8C8DE8120CC00FB607FCFACFE889FC
:1045D000F989808185FFF5CFCE010E948A2CF1CF29
:1045E0008B8DFE01E80FF11DE35AFF4FF0820B8F18
:1045F000EA89FB898081806207C0EE89FF89608338
:10460000E889F98980818064808381E090E0DF918E
:10461000CF911F910F91FF90EF900895CF93DF936B
:10462000EC01888D8823C9F0EA89FB89808185FDAA
:1046300005C0A889B9898C9186FD0FC00FB607FC0B
:10464000F5CF808185FFF2CFA889B9898C9185FF4C
:10465000EDCFCE010E948A2CE7CFDF91CF91089554
:104660002F923F924F925F926F927F928F929F9282
:10467000AF92BF92CF92DF92EF92FF920F931F9370
:10468000CF93DF9300D000D000D0CDB7DEB7A0919C
:104690003507B0913607A817B9070CF472C0FC01B2
:1046A000E20FF31FF7FD6DC097FF05C0AA24BB24DE
:1046B000A81AB90A02C0A12CB12CAE17BF0734F456
:1046C000FD01E81BF90BFE83ED8302C03E832D83C1
:1046D000F9013796F7FD37961C830B833A012B01BE
:1046E0001C019F0193E0359527959A95E1F73A8350
:1046F0002983C12CD12CE12CF12C8B819C81E816D3
:10470000F9060CF03EC085014701840C951CED8133
:10471000FE810E171F076CF5F80183E0F595E7950C
:104720008A95E1F7EC0DFD1DE60DF71DE491F0E033
:10473000C80187709927A0E8B0E002C0B595A79599
:104740008A95E2F7EA23FB23EF2B81F0E0912D0716
:10475000F0912E070084F185E02D21E030E0A401E6
:10476000B801620D731D8DE297E009950F5F1F4F31
:10477000CECFFFEFEF1AFF0A29813A81C20ED31E76
:10478000BCCF26960FB6F894DEBF0FBECDBFDF912B
:10479000CF911F910F91FF90EF90DF90CF90BF903E
:1047A000AF909F908F907F906F905F904F903F90D1
:1047B0002F900895CF92DF92EF92FF92CF93DF93E5
:1047C0006C01990FEE08FF08F7FE12C08DE20E94FF
:1047D000ED2AEC0166277727CB016C197D098E093C
:1047E0009F094AE00E94AC2A7C01EC0EFD1E06C027
:1047F0004AE0C701B6010E94AC2A7C010E948B2AC4
:104800008E0D9F1DDF91CF91FF90EF90DF90CF90A5
:104810000895909179049111FCCF91E090937904DF
:10482000909378042FEF2093770410927604260F4C
:10483000209375049093740490917404880F892BCD
:104840008093740480917304813061F41092730436
:10485000809174048093BB008091BC0083FDF8CFED
:1048600085EC01C085EE8093BC0080917904813095
:10487000E1F380917604861710F460917604A3E545
:10488000B4E023E334E0F9018E2F821B861718F47D
:104890008D918193F9CF862F089520910F079091E4
:1048A0003204213208F04AC0809179048111FCCF92
:1048B00032E03093790431E0309378043FEF309365
:1048C00077041092760420937504A2E1B4E043E5E6
:1048D00054E0FA013E2F341B321718F43D91319306
:1048E000F9CF1092740420917404990F922B909335
:1048F000740490917304913061F410927304909158
:1049000074049093BB009091BC0093FDF8CF95EC9C
:1049100001C095EE9093BC00909179049230E1F340
:10492000909177049F3F79F080917704803241F035
:1049300080917704803331F084E005C081E003C0CA
:1049400082E001C083E01092100710920F071092CE
:1049500011040895CF93DF93EC0181E0809311045B
:1049600088E6809332041092100710920F0780E0BF
:1049700090E00E94C1290E944D2467E088E60E94D1
:104980000924109212078093110783E197E00E9497
:10499000231E982F92959F708F702AE0929F800D12
:1049A0001124888383E197E00E94231E982F92951B
:1049B0009F708F702AE0929F800D1124898383E17C
:1049C00097E00E94231E982F92959F708F702AE087
:1049D000929F800D11248A8383E197E00E94231E19
:1049E000982F92959F708F702AE0929F800D1124CE
:1049F0008B8383E197E00E94231E982F92959F70EE
:104A00008F702AE0929F800D11248C8383E197E0C0
:104A10000E94231E982F92959F708F702AE0929F7C
:104A2000800D11248D8383E197E00E94231E982F2F
:104A30009F70925E82958F702AE0829F900D112464
:104A40009E83DF91CF9108954F925F926F927F92F4
:104A50008F929F92AF92BF92CF92DF92EF92FF928E
:104A60006B017C01B42E9B01AC010E941746882388
:104A700019F080ED92E027C026013701E89477F81D
:104A80002FEF3FEF4FE75FE7C301B2010E941746E8
:104A900081110DC02FEF3FEF4FE75FE7C301B20178
:104AA0000E94004418161CF484ED92E00CC02FEF15
:104AB0003FEF4FE75FE4C701B6010E945F4518165C
:104AC00084F488ED92E0FF90EF90DF90CF90BF905C
:104AD000AF909F908F907F906F905F904F900C94CD
:104AE000562A2FEF3FEF4FE75FECC701B6010E9458
:104AF000004487FDE6CF20E030E0A901C701B60100
:104B00000E94004487FF09C08DE20E94ED2A4C01FB
:104B1000F7FAF094F7F8F09402C0812C912CA12CB4
:104B200060E070E080E09FE3AB1441F020E030E013
:104B300040E251E40E940544A394F6CF9B01AC01EE
:104B4000C701B6010E9494432B013C010E947E44A0
:104B50006B017C010E94AD449B01AC01C301B20119
:104B60000E9493432B013C014AE0C701B6010E9419
:104B7000AC2A7C01E80CF91CBB2029F08EE20E94D3
:104B8000ED2AE80EF91EDB2CDD2021F120E030E0DB
:104B900040E251E4C301B2010E9464452B013C0193
:104BA0000E947E444B01A12CB12C4AE0C501B40106
:104BB0000E94AC2AE80EF91EC501B4010E94AD4462
:104BC0009B01AC01C301B2010E9493432B013C0144
:104BD000DA94DACFC701FF90EF90DF90CF90BF90CB
:104BE000AF909F908F907F906F905F904F900895BF
:104BF000CF93C82F87FDCFE781E20E94C6298C2F73
:104C000080680E94C62980E2CF910C94C629CF9378
:104C1000DF93EC0161E08DE00E94671F209711F4A3
:104C200060E004C0CF3FD10531F461E08DE0DF9159
:104C3000CF910C94371FEDEDFBE1E4918E2F90E0C6
:104C4000FC013197EA30F10508F046C0EF58FF4FFC
:104C50000C94514684B5806884BDC7BD42C084B5FC
:104C6000806284BDC8BD3DC0809180008068809313
:104C70008000D0938900C093880033C08091800069
:104C8000806280938000D0938B00C0938A0029C0FB
:104C90008091B00080688093B000C093B30021C0C1
:104CA0008091B00080628093B000C093B40019C0BE
:104CB00080919000806880939000D0939900C09379
:104CC00098000FC080919000806280939000D093F4
:104CD0009B00C0939A0005C0C038D1050CF0A5CF49
:104CE0009FCFDF91CF91089561E080912B070E94C3
:104CF000671F61E080912B070E94371F61E0809160
:104D00002C070E94671F8CB58F7D8CBD8CB5837F6F
:104D10008CBD80912C070E940E1F892B61F461E0ED
:104D200080912C070E94371F62E370E080E090E0E2
:104D30000E94E31F0FC06FE082E00E94582862E3E8
:104D400070E080E090E00E94E31F82E00E943A2839
:104D500084FDFBCF60E884E50E94582869EA86E577
:104D60000E94582863E088E50E94582868EE8AE58A
:104D70000E94582860E48AE20E9458286DE382E28B
:104D80000E94582888E20E943A28982F9370933006
:104D900029F0682F636088E20C9458280895CF9317
:104DA000DF930E94562AEC010E948B2A8C0F9D1FD4
:104DB000DF91CF9108952F923F924F925F926F9221
:104DC0007F928F929F92AF92BF92CF92DF92EF929B
:104DD000FF920F931F93CF93DF93CDB7DEB72C973E
:104DE0000FB6F894DEBF0FBECDBF5C017A83698336
:104DF0005C834B833E832D8318870F83FA86E98675
:104E0000DC86CB860E941D201B012C010E949B2A60
:104E1000CE0101967C0100E010E06C0110923A078F
:104E20001092390710933C0700933B07F7018191DB
:104E300091917F010E94CF26085F1F4F003311051B
:104E400069F70E94E12966246A94762C00E010E05C
:104E500088248394912C0E941D20DC01CB018219AF
:104E60009309A409B50980399F45A140B10508F00F
:104E700082C06016710609F110923A071092390744
:104E8000C80153E0880F991F5A95E1F790933C07AA
:104E900080933B0710923E0710923D079092400787
:104EA00080923F07F801EE0FFF1FEC0DFD1D808182
:104EB00091810E94CF260E94E1290E946A11F82E5A
:104EC000882309F454C00E941D208F2D0E94901049
:104ED000FAE1FF16E1F02BE1F21621F089E1F81278
:104EE0004EC00CC081E090E090933E0780933D0758
:104EF0009093400780933F07C80143C0780191E039
:104F0000E91AF108EA14FB046CF475010BC078018E
:104F1000EFEFEE1AFE0AF6E0EF16F1041CF045E0A2
:104F2000E42EF12C0E151F05F9F090923E078092A9
:104F30003D071092400710923F0710923A071092D7
:104F40003907C80123E0880F991F2A95E1F790934C
:104F50003C0780933B07F801EE0FFF1FEC0DFD1D92
:104F6000808191810E94CF260E94E12901C07801B1
:104F70003801870170CF80E00E94061402C07801DA
:104F8000F3CF2C960FB6F894DEBF0FBECDBFDF91E6
:104F9000CF911F910F91FF90EF90DF90CF90BF9036
:104FA000AF909F908F907F906F905F904F903F90C9
:104FB0002F900895CF92DF92FF920F931F93CF937C
:104FC000DF931F92CDB7DEB7082F162F60E08091D8
:104FD0002B0779830E94371F82E10E947320F12EF4
:104FE000C12E7981D72E8C2D8F19801730F4F601C0
:104FF00081916F010E947320F6CF61E080912B07B1
:105000000F90DF91CF911F910F91FF90DF90CF9084
:105010000C94371F9091490791110C94732028E04C
:1050200030E040E8E0914C07F0914D0750819091BD
:105030005307909595239083E0914A07F0914B0791
:1050400090915207542F582319F05081952B03C08B
:105050005081909595239083E0914C07F0914D07F6
:10506000508190915307952B90834695215031099B
:10507000C9F608950F931F93CF93C82F0FE117E040
:1050800060E0F80184850E94371F8C2F8E7780683E
:105090000E94732080E00E947320C82F61E0F80115
:1050A00084850E94371F8C2FCF911F910F910895F7
:1050B0000F931F93CF93DF93082F162FCFE1D7E0E5
:1050C00060E08C850E94371F802F8E770E947320AE
:1050D000812F0E94732061E08C85DF91CF911F9119
:1050E0000F910C94371FCF93C82F0E943A28682F36
:1050F00060688C2FCF910C945828EF92FF920F93F9
:105100001F93CF93DF937C01C62F8A0160E082E07A
:105110000E94582864E08AE00E94582884E10E9496
:105120007328B7018C2F0E94DA2763E082E00E9487
:105130005828C8E8D3E18AE00E943A2882FD05C0D9
:105140002197C9F784E090E010C060E082E00E94FF
:10515000582884E40E943A28F801808382E40E945F
:105160003A28F801818381E090E0DF91CF911F918F
:105170000F91FF90EF9008957F928F929F92AF9240
:10518000BF92CF92DF92EF92FF920F931F93CF9334
:10519000DF934C01F62EEA01590168010115110552
:1051A00019F0F801908101C090E0192FF0E1EF9E15
:1051B000100D112460E082E00E9458286FE788E01B
:1051C0000E94582884E10E947328B4018F2D0E9408
:1051D000DA27612F8AE10E9458286CE082E00E9461
:1051E00058288AE10E94732800ED17E088E00E94A9
:1051F0003A28982F907331F480FD72C00150110944
:10520000A9F76EC08CE00E943A28F82E837109F04D
:105210006AC0209709F45FC0A114B10409F45BC00F
:1052200084E10E943A28182FF5018081811708F443
:105230005DC01083112309F445C060E080912B0705
:105240000E94371F0FEF010F82E90E9473207C2E0E
:105250008C2E9D2EAA24A394B12C882D87198017FB
:1052600030F581111BC0EE20C9F09E2D10E0983062
:1052700048F49501092E01C0220F0A94EAF7122B77
:105280009F5FF5CF82E90E947320212F209598819E
:1052900092238123192F182B188305C082E90E94BD
:1052A0007320F4018083FFEF8F1A9F0AD6CFC00FBF
:1052B000D11D80E00E947320888361E080912B07DC
:1052C0000E94371F88E10E943A288770C114D104D8
:1052D00011F0F6018083F3FC0CC081E090E00BC07C
:1052E00084E090E008C082E090E005C085E090E0B6
:1052F00002C083E090E0DF91CF911F910F91FF906A
:10530000EF90DF90CF90BF90AF909F908F907F9065
:105310000895EF920F931F93CF93DF9300D000D0A7
:10532000CDB7DEB780E589831A82AE014D5F5F4F4E
:1053300062E0CE0101960E947D2881309105B9F48A
:10534000E12C00E010E020E030E040E050E064E0DC
:10535000CE0101960E94BC288430910531F0813045
:10536000910529F482E090E002C081E090E00F9086
:105370000F900F900F90DF91CF911F910F91EF90B1
:105380000895682F83E197E00C946F1ECF93C82F88
:1053900060E0809146070E94371F809148071816E9
:1053A0001CF460E00E94371F8C2F0E940A28809115
:1053B0004807181624F461E0CF910C94371FCF9161
:1053C0000895EF92FF920F931F93CF93DF938091F5
:1053D0004907882349F180E40E94C62980E80E9499
:1053E000C62961E0809146070E94371F80914807D7
:1053F00018161CF460E00E94371FCAE7D4E08991B8
:105400000E94732086E0C237D807C9F78091480709
:1054100018160CF044C061E0DF91CF911F910F91FD
:10542000FF90EF900C94371F8AE7E82E84E0F82E67
:10543000C0E08C2F80640E94C62980E80E94C629A3
:1054400061E0809146070E94371F80914807181637
:105450001CF460E00E94371F00E010E0F701E00F4D
:10546000F11F80810E940A280F5F1F4F043511052C
:10547000A9F78091480718161CF461E00E94371FB5
:10548000CF5F84E5E80EF11CC63099F680E4DF9129
:10549000CF911F910F91FF90EF900C94C629DF914F
:1054A000CF911F910F91FF90EF900895009769F0B1
:1054B000FC0101900020E9F73197AF01481B590B1F
:1054C000BC018DE297E00C94AB1A80E090E0089567
:1054D0000C94562A0F931F93CF93DF938C01C0E057
:1054E000D0E0F801EC0FFD1F6491662371F0E091AC
:1054F0002D07F0912E070190F081E02D8DE297E0CD
:105500000995892B11F02196ECCFCE01DF91CF9137
:105510001F910F9108958CED92E00C94562ACF9331
:10552000DF930E946A2AEC010E948B2A8C0F9D1F38
:10553000DF91CF91089588EF91E0EAE7F4E0DF0191
:105540009C011D9221503040E1F7EDE2F7E0158615
:1055500014861786168608958F929F92AF92BF92F7
:105560000F931F93CF93DF93CDB7DEB7A1970FB6FD
:10557000F894DEBF0FBECDBF19A2423008F44AE056
:105580008E010F5D1F4F842E912CA12CB12CA501F3
:1055900094010E946243E62FB901CA01015011092A
:1055A000EA3014F4E05D01C0E95CD801EC93232BF0
:1055B000242B252B61F7C8010E94562AA1960FB60D
:1055C000F894DEBF0FBECDBFDF91CF911F910F9139
:1055D000BF90AF909F908F900895E0912D07F0912C
:1055E0002E070190F081E02D682F8DE297E009945D
:1055F000CF92DF92EF92FF92CF93DF936115710507
:1056000089F4E0912D07F0912E070190F081E02DB3
:10561000682F8DE297E0DF91CF91FF90EF90DF90C0
:10562000CF9009946C01990FEE08FF086A3071055C
:10563000D9F4F7FE17C08DE20E94ED2AEC0166272F
:105640007727CB016C197D098E099F094AE00E94DA
:10565000AC2A8C0F9D1FDF91CF91FF90EF90DF90D0
:10566000CF9008954AE001C0462FC701B601DF91EF
:10567000CF91FF90EF90DF90CF900C94AC2A6F9277
:105680007F928F929F92AF92BF92CF92DF92EF92D2
:10569000FF920F931F93CF93DF93EA012CE3C22E67
:1056A000D12CE12CF12CA70196010E946243688362
:1056B000CA01B901A70196010E9462436983CA0128
:1056C000B90128E130E040E050E00E946243690106
:1056D0007A016A83CA01B9016C5F7F4F8F4F9F4F78
:1056E00027E030E040E050E00E9462436F5F6B8350
:1056F000812C912C540140E034E6632E712C00E99A
:1057000011E0242F30E02E54384FF901E370FF27C9
:10571000309789F4C901B3010E943D46892B31F4C9
:10572000C901B8010E943D46892B29F48EE691E01B
:10573000A0E0B0E004C08DE691E0A0E0B0E0880E0B
:10574000991EAA1EBB1ED501C401AA27BB27C816D5
:10575000D906EA06FB0610F04F5FD3CF4E83309791
:1057600099F4C90164E670E00E943D46892B39F442
:10577000C90160E971E00E943D46892B29F48EE65B
:1057800091E0A0E0B0E004C08DE691E0A0E0B0E0E0
:10579000881A990AAA0ABB0AC818D908EA08FB0895
:1057A000C90164E670E00E943D468C01C90160E9D0
:1057B00071E00E943D46A6EAB1E020E0213041F4CC
:1057C000309751F40115110529F4009729F402C00E
:1057D0004C9103C04DE101C04CE150E060E070E04D
:1057E000C416D506E606F70640F0C41AD50AE60A3E
:1057F000F70A2F5F11962C3009F72F5F2D83C39482
:10580000CC82DF91CF911F910F91FF90EF90DF90AD
:10581000CF90BF90AF909F908F907F906F900895A2
:105820000C9422430C941A43EF92FF920F931F9310
:10583000E12CF12C0BE010E02CE430E040E150E0F2
:1058400064E070E08DE297E00E94861CEE24E39411
:10585000F12C2CE430E040E150E064E070E08DE2B7
:1058600097E00E94E81CEDE2F7E086E090E0958783
:10587000848782E190E09787868781E090E0918B32
:10588000808B938B828B8FED92E00E94682A1F9110
:105890000F91FF90EF900C94E129CF93DF93EC01EF
:1058A000D7FF04C0882799278C1B9D0B8436910550
:1058B00014F0C3E6D0E0CE010996439720F480EFC0
:1058C0009BE10E946A2ACE01D7FF03C09195819582
:1058D00091096AE070E0DF91CF910C94F82A80E0A2
:1058E00090E0892B21F00E94A41E81110DC080E060
:1058F00090E0892B71F080E090E0892B51F00E94BC
:105900000000811104C008950E940000F0CF0C94A3
:1059100000000895FC01848DDF01A80FB11DA35A7A
:10592000BF4F2C91848D90E001968F739927848FBF
:10593000A689B7892C93A089B1898C9180648C93B6
:10594000938D848D981306C00288F389E02D8081A1
:105950008F7D80830895CF93DF93CDB7DEB7E49733
:105960000FB6F894DEBF0FBECDBF789484B58260C9
:1059700084BD84B5816084BD85B5826085BD85B5F3
:10598000816085BD80916E00816080936E00109271
:1059900081008091810082608093810080918100EC
:1059A000816080938100809180008160809380007D
:1059B0008091B10084608093B1008091B0008160DB
:1059C0008093B000809191008260809391008091DB
:1059D000910081608093910080919000816080931C
:1059E000900080917A00846080937A0080917A00A0
:1059F000826080937A0080917A008E7F80937A0013
:105A000080917A00806880937A001092C10061E0F2
:105A10008FE10E94671F61E08FE10E94371F89E0DC
:105A20008093ED0280E090E00E945414A89560E01D
:105A300089E10E94671F61E089E10E94371F60E0F1
:105A40008AE10E94671F61E08AE10E94371F60E0DF
:105A50008BE10E94671F61E08BE10E94371F61E0CC
:105A60008CE10E94671F60E08CE10E94371FA895BF
:105A700061E08BE00E94671F61E08BE00E94371FAE
:105A8000A89588E08093ED0261E0809144070E9430
:105A9000671F61E0809145070E94671F61E0809168
:105AA00046070E94671F8091470718161CF461E0A3
:105AB0000E94671F8091480718161CF461E00E943D
:105AC000671F8091470718168CF460E00E94371F0B
:105AD0002FEF34E34CE0215030404040E1F700C06C
