:10000000D2C0F5C085C3F3C070C7F1C0F0C0EFC067
:10001000A1C3EDC0ECC032C3EAC0E9C0E8C0E7C08C
:10002000E6C0B3C8BEC8E4C820C96BC992C9EBC951
:1000300064CA9BCCD7CAE4CA04CB3BCB5ACB93CB84
:10004000F8CA554E42454B414E4E54455220464506
:10005000484C45522E202000202042415454455205
:100060004945204C4545522E2000494E5445524E9C
:100070004552204645484C45522E2020004D5055B3
:100080004944204645484C45522E2020004D5055AD
:10009000204645484C45522E2020004932432046F8
:1000A00045484C45522E2020000000000010021848
:1000B000060000000000000002700440070000007D
:1000C0000000010800800000007007000368064877
:1000D000071803580578050007780758070000003F
:1000E00000680048004801280600003807780168C9
:1000F0000068037804380470053801300060033864
:1001000005700028013007680138065806280018D5
:10011000017800700360015002380358036806003C
:10012000003A00370000003B0038000101010101E6
:1001300001010102020201020408102040800402B1
:100140000100000000000403020100004F54484574
:1001500052204552523D2000493243204552523DE3
:1001600020004D494E555445533D200056495349B2
:1001700054533D2000204259452E004241545445DD
:100180005249452046415354204C4545522E2000AB
:100190004E3736332045313236009B008D007D00CE
:1001A0006A005800420011241FBECFE5D2E0DEBF36
:1001B000CDBF14BE0FB6F894A89581B5886181BDF6
:1001C00011BC0FBE10E0A0E6B0E0E6E3FBE102C028
:1001D00005900D92A836B107D9F720E0A8E6B0E067
:1001E00001C01D92A13CB207E1F7D5D6A2CC08CF41
:1001F00090E0FC01EF5BFE4F3491FC01EA5CFE4FA6
:100200002491FC01E55DFE4FE491EE2351F133238F
:10021000B1F0323089F028F4313089F480B78F772B
:100220000DC0333029F0343051F48FB58F7D02C0CA
:100230008FB58F778FBD03C080B78F7D80BFF0E013
:10024000EE0FFF1FEB5DFE4FA591B4918FB7F894B1
:10025000EC91611103C020952E2301C02E2B2C930D
:100260008FBF0895CF93DF9390E0FC01EA5CFE4FCF
:100270002491FC01E55DFE4F8491882361F190E0BB
:10028000880F991FFC01E15EFE4FC591D491FC01DE
:10029000EB5DFE4FA591B491611109C09FB7F89431
:1002A0008881209582238883EC912E230BC06230B5
:1002B00061F49FB7F8943881822F809583238883D7
:1002C000EC912E2B2C939FBF06C08FB7F894E8813A
:1002D0002E2B28838FBFDF91CF9108953FB7F894DD
:1002E00080917C0090917D00A0917E00B0917F0074
:1002F00022B708B600FE05C02F3F19F00196A11DD8
:10030000B11D3FBFBA2FA92F982F8827820F911DAB
:10031000A11DB11DBC01CD0146E0660F771F881FEE
:10032000991F4A95D1F708958F929F92AF92BF92ED
:10033000CF92DF92EF92FF926B017C01CFDF4B01F6
:100340005C01C114D104E104F104E9F0C7DFDC0170
:10035000CB0188199909AA09BB09883E9340A105D8
:10036000B10578F321E0C21AD108E108F10888EE5E
:10037000880E83E0981EA11CB11CC114D104E104B5
:10038000F10421F7DECFFF90EF90DF90CF90BF9088
:10039000AF909F908F900895F89460916E00709147
:1003A0006F008091700090917100789408958F9201
:1003B0009F92AF92BF92CF92DF92EF92FF926C0129
:1003C000EBDF4B015C01E12CF12CE6DFDC01CB0122
:1003D00088199909AA09BB098C159D05AE05BF05A9
:1003E00058F485B7877E85BF85B7806285BF8895BD
:1003F00085B78F7D85BFE9CFFF90EF90DF90CF90DD
:10040000BF90AF909F908F90089581E287B98EE161
:1004100090E0CDDF369A3699FECF369A3699FECFE8
:1004200024B135B140E050E06AEB73E181E190E046
:10043000C0DACA01B9016B5F7F4F8F4F9F4F2AE02F
:1004400030E040E050E0B5DAC9010895880F990B1B
:10045000FC01E759FF4F8591949190936D00809333
:100460006C00662349F080916C0090916D0080686B
:1004700090936D0080936C00089560E0E7DF80E268
:1004800093E095DF60E080E2E1DF8CE291E08FCFE6
:100490004F925F926F927F928F929F92AF92BF9294
:1004A000CF92DF92EF92FF920F931F93CF93DF9340
:1004B00000D01F92CDB7DEB76B017C0197FF0AC059
:1004C000F094E094D094C094C11CD11CE11CF11CA8
:1004D0008DE2D3DF07E010E090E8892E96E9992EAF
:1004E00098E9A92EB12C2AE0422E512C612C712CB6
:1004F000C701B601A50194017EDA232B242B252BFD
:1005000051F4C501B401A301920175DA49015A0100
:100510000150110969F78AE0482E512C612C712C89
:10052000181419041A041B04DCF4C701B601A50150
:10053000940161DA182F80E3820F69837A839B83A9
:100540009CDF6981C62E7A81D72EE12E9B81F92E00
:10055000C501B401A30192014EDA49015A01E0CF6D
:100560000F900F900F90DF91CF911F910F91FF90FF
:10057000EF90DF90CF90BF90AF909F908F907F9043
:100580006F905F904F900895CF93DF93FC0184911B
:10059000EF012196882319F070DFFE01F8CFDF917B
:1005A000CF910895CF92DF92EF92FF920F931F9316
:1005B000CF93DF937C01C62FD0E000E010E06E0106
:1005C00081E0C81AD1080C171D0759F0C701DCDFFC
:1005D0000C151D0519F080ED97E0E9DE0F5F1F4F48
:1005E000F2CFDF91CF911F910F91FF90EF90DF90AD
:1005F000CF9008950F931F93CF93DF938C01EB015E
:10060000C2D98883C8010196BED98983CE01DF9102
:10061000CF911F910F910895AF92BF92CF92DF9229
:10062000EF92FF920F931F93CF93DF931F92CDB75B
:10063000DEB75C017B018B016C0182E0C80ED11C2E
:10064000F80161918F01C50169839DD9698168179E
:1006500011F0C501A0D9FFEFAF1ABF0AAC14BD0459
:1006600079F7C7010F90DF91CF911F910F91FF9004
:10067000EF90DF90CF90BF90AF9008951F920F92B0
:100680000FB60F9211242F933F938F939F93AF93A5
:10069000BF938091780090917900A0917A00B091F9
:1006A0007B003091770020E3230F2D3720F4409614
:1006B000A11DB11D05C023EB230F4196A11DB11D46
:1006C000209377008093780090937900A0937A002C
:1006D000B0937B0080917C0090917D00A0917E0082
:1006E000B0917F000196A11DB11D80937C00909375
:1006F0007D00A0937E00B0937F00BF91AF919F914A
:100700008F913F912F910F900FBE0F901F901895D2
:100710001F920F920FB60F9211248F939F93AF9356
:10072000BF9380916E0090916F00A0917000B09186
:1007300071008093800090938100A0938200B09319
:100740008300BF91AF919F918F910F900FBE0F903B
:100750001F9018951F920F920FB60F9211242F938E
:100760003F934F935F936F937F938F939F93AF9339
:10077000BF93CF93EF93FF9380916E0090916F00A2
:10078000A0917000B09171000196A11DB11D8093E0
:100790006E0090936F00A0937000B093710082E898
:1007A0009FEF9DBD8CBDC0916900EC2FF0E0E05A39
:1007B000FF4F60E080811CDDCF5FC83018F4C0932C
:1007C000690002C010926900E0916900E73019F4F5
:1007D0008091A60004C0E73020F48091A50081112B
:1007E00017C0F0E0E05AFF4F808140916C005091BB
:1007F0006D0021E030E0082E02C0220F331F0A9462
:10080000E2F724233523232B69F061E0F1DC0AC0F1
:1008100080916E0090916F00A0917000B091710076
:1008200090FDDFCFFF91EF91CF91BF91AF919F915D
:100830008F917F916F915F914F913F912F910F9089
:100840000FBE0F901F90189571E0D29AD1980000BA
:1008500000000000D298A894000000000000CA9B8D
:1008600084D3A2F08894C9990894771F70F7D29A1C
:10087000803011F0D19801C0D19A00000000000032
:10088000D298A89400000000CA9B6FD3000000001B
:10089000D29A872F9927089580E208950894881F97
:1008A00001C0880FA9F0D29A00000000000018F4DF
:1008B0000000D19802C0D19A00C0D298A89400003C
:1008C00000000000CA9B51D312F488270FC0E9CF63
:1008D000D29A00000000D19899278827D298A8942E
:1008E0000000CA9B42D38AF3C99B81E0000000004C
:1008F000D29A089581E00895D29AD19A4AD3D29893
:1009000048D3CA9B32D3D19844D308958F93F1E052
:10091000E4EF8F918F93CA9B28D3D19A3AD3BEDF4D
:10092000882321F4E9DF319709F0F3CF99270F905D
:1009300008950895D29A2DD3D1982BD3D29829D344
:10094000CA9B13D3D19A25D3A9DF089581E00895D6
:10095000CA9B0BD3D19A1DD3A1DF089581E00895DE
:10096000CF92DF92FF920F931F93CF93DF93C82F05
:10097000F62E82EDEDDF882321F08C2F8FDF8111A1
:1009800002C0C1E01DC083EDD5DF8823D1F381EB28
:10099000C82E80E0D82EE6010F2D10E0015011097D
:1009A0008C2F8C198F1558F481E09E01215B30400B
:1009B0002017310709F080E047DF8993F1CFC0E0CD
:1009C0009BDFCC2339F08091B000811103C082E01D
:1009D0008093B000DF91CF911F910F91FF90DF9036
:1009E000CF900895CF93DF93C5EFD1E061E08AE324
:1009F000B7DF8091B10080FD0AC0219721F482E029
:100A00008093B00004C081E090E0D1DCEFCFDF91B3
:100A1000CF91089562E0A4DFE1EBF0E0808190E007
:100A2000982F88272181822B0895CF92DF92EF9211
:100A3000FF92CF93DF93D6DF8091B000811181C008
:100A40008DE3E8DFBC01990F880B990B28EE33E0AA
:100A500040E050E0ECD7B901CA01C12C20E1D22E10
:100A6000E12CF12CA7019601C6D73093A400209366
:100A7000A3008FE3CFDFBC01990F880B990B28EE01
:100A800033E040E050E0D3D7B901CA01A701960195
:100A9000B2D730939A002093990085E4BBDFEC0134
:100AA000909398008093970077DCC0907200D0906C
:100AB0007300E0907400F09075006C197D098E0948
:100AC0009F0960938F0070939000809391009093A2
:100AD00092009E01DD0F440B550BABD7B901CA0143
:100AE0002AE030E040E050E0A4D7B901CA0120E19B
:100AF00030E440E050E07FD720939300309394009F
:100B0000409395005093960080919B0090919C009B
:100B1000A0919D00B0919E00820F931FA41FB51F4E
:100B200080939B0090939C00A0939D00B0939E00A7
:100B300033DC609372007093730080937400909321
:100B40007500DF91CF91FF90EF90DF90CF900895E7
:100B50000F931F9347DF8DE35DDFBC018091B000F1
:100B600081113CC0072E000C880B990B28EE33E056
:100B700040E050E05CD7B901CA0120E030E140E03C
:100B800050E039D73093A4002093A30005DC0091F6
:100B90007200109173002091740030917500DC0197
:100BA000CB01801B910BA20BB30B80938F00909312
:100BB0009000A0939100B093920010929300109235
:100BC00094001092950010929600E6DB60937200FC
:100BD0007093730080937400909375001F910F9130
:100BE0000895DF92EF92FF920F931F93CF93DF93BD
:100BF000C82FD62F82EDACDE8823B9F08C2F4EDEC5
:100C0000882399F081EBE82E80E0F82E8701C0E080
:100C1000DD24D394802F8E198D1740F4F801819133
:100C20008F013CDE8D25C82BF5CFC1E065DECC23DE
:100C300039F08091B000811103C082E08093B00050
:100C4000DF91CF911F910F91FF90EF90DF9008956A
:100C5000E1EBF0E07083618362E0C3CF6093B100A9
:100C600061E0BFCFCF9390917600891709F47EC0E1
:100C7000C82F833009F451C038F4813069F08230D4
:100C800009F058C060E04AC0843009F44DC0853096
:100C900009F050C060E445C061E08AE6DFDF60E84B
:100CA0008BE6DCDF61E08BE65BDE8091B10087FFE5
:100CB00004C081E090E07BDBF5CF8AE090E077DB59
:100CC00060E08BE6CBDF60E08CE6C8DF60E070E0E0
:100CD00086E0BEDF64EF79E088E0BADF6BE974E0BC
:100CE0008AE0B6DF60E070E083E1B2DF66EF7FEFBD
:100CF00085E1AEDF60E070E087E1AADF68E18BE1CB
:100D0000ADDF60E18CE1AADF61E088E3A7DF66E0A8
:100D10008AE1A4DF69EF89E105C065E28CE69EDF28
:100D200062E08BE69BDF09C060E08BE697DF6FE255
:100D30008CE6F8CF84E08093B0002EDB60937200E5
:100D40007093730080937400909375008091B0004D
:100D500081110AC061E085E703DE8091B100883629
:100D600019F083E08093B000C0937600CF9108958E
:100D7000CF93DF931F92CDB7DEB70FB6F894A89547
:100D800081B5886181BD11BC0FBE85E06BDF10921B
:100D9000A6001092A50060E080E258DB16B800E6DD
:100DA00010E060E0F80181918F0122DAF0E008366E
:100DB0001F07B9F760E081E055DA60E082E052DABF
:100DC00078948091A70081112EC080918C00909121
:100DD0008D00019690938D0080938C006CE870E0FC
:100DE00080E090E019DCD8DA28EE33E040E050E013
:100DF000E0D58091880090918900A0918A00B091FF
:100E00008B00820F931FA41FB51F809388009093BF
:100E10008900A0938A00B0938B0008E810E082E07C
:100E2000E82EF12C17C018E188E893E1C0DA61E000
:100E300087E0DED985E090E0BADA60E087E0D8D9D3
:100E4000115091F7C2CFFFEFEF1AFF0A86E0E816C4
:100E5000F10461F0F80161918F01C701698393D5B5
:100E60006981681781F3C70196D5EDCF8091B000F5
:100E70008150833048F480918600909187000196DC
:100E8000909387008093860066E870E086E090E0AB
:100E9000C3DB8091B0008D7F843049F48091840061
:100EA000909185000196909385008093840064E87A
:100EB00070E088E090E0B0DB84E190E078DA1CB884
:100EC0001EBC85B7877E806185BF85B7806285BF80
:100ED000889585B78F7D85BF98E088E10FB6F89437
:100EE000A89581BD0FBE91BDFFCF1F920F920FB687
:100EF0000F9211242F933F934F935F936F937F93A0
:100F00008F939F93AF93BF93EF93FF9381B58064CB
:100F100081BD80916A0090916B00089690936B0060
:100F200080936A008538934008F022DFFF91EF91AB
:100F3000BF91AF919F918F917F916F915F914F91F1
:100F40003F912F910F900FBE0F901F901895D19841
:100F5000D298D998DA9888279927C99B0895CA9B6F
:100F6000089581E0089581E00895B0E0A9E10024AA
:100F700009D032F40A94E1F71197C9F7289408C010
:100F8000A89406C0A894CA9901C0289400000895A6
:100F9000089508950895789480B7826080BF80B7DF
:100FA000816080BF83B7826083BF83B7816083BF66
:100FB00089B7816089BF1EBC8EB582608EBD8FB53A
:100FC00081608FBD3298319A309A379A19BEC0E647
:100FD000D0E0199161E0812F45D960E0812F08D9D7
:100FE00020E0C836D207A9F71FBC82E08EBD12BC34
:100FF000C1E0CCB987E39FEF9DBD8CBD99E288E14C
:101000000FB6F894A89581BD0FBE91BD81B58064DF
:1010100081BD62E080E026D980E18BBFC2BB97DF53
:101020008C278093B000811102C081E01BDE61E05B
:1010300087E0DED88AE090E0BAD9E7D99093A9009A
:101040008093A80060E087E0D3D868EC70E080E08F
:1010500090E06AD985E006DE6CE870E080E090E020
:10106000C9DA80918C0090918D00019621F4109244
:101070008D0010928C0008E810E0C2E0D0E0CE01B4
:1010800082D4F80181938F012196C630D105B9F73A
:101090008091880090918900A0918A00B0918B0086
:1010A0008F3F9F4FAF4FBF4F41F410928800109277
:1010B000890010928A0010928B0066E870E086E04A
:1010C00090E098DA8091860090918700019621F453
:1010D000109287001092860064E870E088E090E04B
:1010E00089DA8091840090918500019621F4109214
:1010F00085001092840080E888B986B180938E00C4
:1011000016B881E08093AF001092AE0045D960938D
:10111000AA007093AB008093AC009093AD00C1E047
:101120003CE3432E512C612C712C40E1842E4EE087
:10113000942EA12CB12C50E0252E50E0352E04E049
:10114000D3E01BE0F090B000FF2019F082E0809324
:10115000AF00E090AF008091AE00E81659F0E09249
:10116000AE001AD96093AA007093AB008093AC00D4
:101170009093AD008E2D90E0FC013197E031F105A8
:1011800008F0F3C3EF5EFF4F09948091A80090919F
:10119000A900803F91050CF089C285E08093B000E2
:1011A000E6C3C093A7001092A6001092A5008FEF8F
:1011B0008F0D863010F026E0F22EEF2DF0E0EE0FCE
:1011C000FF1FE856FE4F8591949165E0EBD984E0CE
:1011D00049DDBEDC8091A3009091A4008E3A9C4F23
:1011E0000CF02EC28CE08093AF001092B000BFC311
:1011F00010929F001092A0001092A1001092A200E5
:10120000C093A6001092A50061E080E21FD984E09F
:1012100029DD9EDC8091A3009091A4008335F3E04A
:101220009F071CF00093AF00A2C38E3A9C4F14F4AA
:101230008CE018C0B1D8F894C0908000D0908100A4
:10124000E0908200F09083007894DC01CB018C194F
:101250009D09AE09BF0981329E44A105B10508F47C
:1012600086C380E18093AF0082C31092A600C09332
:10127000A50061E080E3EAD810929B0010929C00E8
:1012800010929D0010929E0083E0ECDCCEDB8091FA
:10129000A3009091A4008F3EE2E09E07ACF0809105
:1012A000990090919A00813991409CF0809197002B
:1012B0009091980097FF03C0919581959109893885
:1012C0009B403CF086E0CECF8E3E924011F085E010
:1012D000C9CF62D8F894C0908000D0908100E0908F
:1012E0008200F09083007894DC01CB018C199D0979
:1012F000AE09BF0981329E44A105B10508F0B1CF06
:1013000036C3C093A600C093A50061E080E39ED8D9
:1013100084E0A8DC1DDC8091A3009091A4008335BB
:1013200093400CF07FCF38D8C090AA00D090AB008B
:10133000E090AC00F090AD00DC01CB018C199D0970
:10134000AE09BF0981329E44A105B10508F089CFDD
:101350000EC31092A6001092A50060919B007091A0
:101360009C0080919D0090919E0097FF07C09095F2
:101370008095709561957F4F8F4F9F4FA501940188
:101380003AD361E080E3820F61D883E06BDC4DDB10
:101390008091A3009091A4008F3E42E09407ACF0AE
:1013A0008091990090919A008C32914024F4F7E05A
:1013B000F093AF00DCC28091970090919800815526
:1013C000984F8F359F4030F4F2CF8E3E924011F00F
:1013D00088E048CF80919B0090919C00A0919D0057
:1013E000B0919E00B7FF07C0B095A09590958195EC
:1013F0009F4FAF4FBF4F803A9C48A105B1050CF4F9
:10140000B6C28AE02FCF1092A600C093A500C0906C
:101410009B00D0909C00E0909D00F0909E00C70142
:10142000B601F7FE07C066277727CB016C197D0947
:101430008E099F09A5019401DED261E080E3820F4D
:1014400005D88091930090919400A0919500B0915F
:101450009600C81AD90AEA0AFB0AC0929B00D092E9
:101460009C00E0929D00F0929E0040918F00509170
:101470009000609191007091920080919F009091F6
:10148000A000A091A100B091A200840F951FA61FFB
:10149000B71F80939F009093A000A093A100B093EA
:1014A000A20081319742A105B10518F01093AF0059
:1014B0005EC283E0D7DBB9DA8091990090919A00FF
:1014C0002091A3003091A400813991408CF080914B
:1014D00097009091980097FF03C09195819591098D
:1014E00089389B402CF02F3EF2E03F070CF0EACE0B
:1014F0002E3E32400CF46CCF3AC2C093A600C0938B
:10150000A500C0909B00D0909C00E0909D00F090C2
:101510009E00C701B601F7FE07C066277727CB01FB
:101520006C197D098E099F09A501940164D261E0BF
:1015300080E3820F8BD78091930090919400A091CB
:101540009500B0919600C81AD90AEA0AFB0AC0921F
:101550009B00D0929C00E0929D00F0929E004091F2
:101560008F00509190006091910070919200809155
:101570009F009091A000A091A100B091A200840FC3
:10158000951FA61FB71F80939F009093A000A09364
:10159000A100B093A20081319742A105B10508F0E6
:1015A00085CF83E05FDB41DA8091A3009091A400B6
:1015B000833593400CF4DBC18091990090919A009F
:1015C000813991400CF4F3CE80919700909198006E
:1015D00097FF03C091958195910989389B400CF440
:1015E000E6CE70CE85E03EDB1092A6001092A500FC
:1015F00060E080E22BD76AE080E991E0D3D7B0C108
:1016000085E030DB1092A6001092A50060E080E239
:101610001DD78091A8009091A9008F3F910524F4D7
:1016200063E08BE791E003C061E085E791E0BAD722
:1016300007C01092A6001092A50060E080E206D7D5
:1016400097DB83E00FDBF1D9C093A6001092A500D1
:1016500061E08CE2FBD68091A3009091A4008F3EC4
:1016600092401CF0D093AF000AC0809199009091F5
:101670009A00803E9C4F1CF42DE02093AF008CD646
:10168000F894C0908000D0908100E0908200F090AB
:1016900083007894DC01CB018C199D09AE09BF0948
:1016A00081329E44A105B10508F461C1D093AF0019
:1016B0005EC183E0D7DAB9D9C093A6001092A50025
:1016C00061E087E2C3D68091A3009091A4008F3E91
:1016D000E2E09E073CF52091990030919A0021327A
:1016E000334004F58E3A9C4F34F54EE04093AF0002
:1016F00022C083E0B7DA99D9C093A6001092A50062
:1017000061E08DE2A3D68091A3009091A4008F3E6A
:10171000924044F48091990090919A00803E2CEF81
:1017200092071CF4D093AF0006C0813293401CF0A6
:101730008FE08093AF0030D6F894C0908000D090B6
:101740008100E0908200F09083007894DC01CB016E
:101750008C199D09AE09BF0981329E44A105B105CE
:1017600008F0A4CF04C184E07DDA1092A6001092A4
:10177000A50060E080E26AD680918E0086B984E0A0
:10178000F82EE6D98091A3009091A4008335934070
:1017900094F085E067DA16B88CE691E0F5D684E03F
:1017A00061DAD6D98091A3009091A4008F3E924037
:1017B0000CF0E6C00DC029D6BC01990F880B990B1F
:1017C00067D68CED95E0F3D5FA94F110DACFE1CF3E
:1017D00085E048DA60918C0070918D0080E090E0A7
:1017E00057D684E03FDAB4D98091A3009091A40049
:1017F0008F3E92400CF0C4C085E034DA80ED97E073
:10180000D6D584E02FDAA4D98091A3009091A400CA
:101810008F3E92400CF0B4C085E024DA82E691E07D
:10182000B3D684E01FDA94D98091A3009091A400EC
:101830008F3E92400CF0A4C085E014DA60918800DD
:101840007091890080918A0090918B00A301920190
:10185000B0D0CA01B9011CD684E004DA79D98091EC
:10186000A3009091A4008F3E92400CF089C085E0C7
:10187000F9D980ED97E09BD584E0F4D969D98091BE
:10188000A3009091A4008F3E92400CF079C085E0B7
:10189000E9D988E591E078D684E0E4D959D98091F6
:1018A000A3009091A4008F3E92400CF069C085E0A7
:1018B000D9D9609186007091870080E090E0E8D5EA
:1018C00084E0D0D945D98091A3009091A4008F3EA7
:1018D00092400CF055C085E0C5D980ED97E067D502
:1018E00084E0C0D935D98091A3009091A4008F3EA7
:1018F00092400CF045C085E0B5D98CE491E044D627
:1019000084E0B0D925D98091A3009091A4008F3EA6
:101910009240B4F585E0A6D960918400709185006D
:1019200080E090E0B5D584E09DD912D98091A300E4
:101930009091A4008F3E92401CF585E093D960ED14
:1019400077E080E090E0F0D484E08CD901D98091F8
:10195000A3009091A4008F3E924094F485E082D938
:101960001093AF00C093A70002C00093B00086E9B7
:1019700090E01DD52114310409F4E4CB41D3E1CB2F
:10198000D093AF00EFCFE199FECF9FBB8EBBE09A23
:1019900099278DB30895262FE199FECF1CBA9FBBDE
:1019A0008EBB2DBB0FB6F894E29AE19A0FBE01965A
:1019B0000895A1E21A2EAA1BBB1BFD010DC0AA1F90
:1019C000BB1FEE1FFF1FA217B307E407F50720F0A8
:1019D000A21BB30BE40BF50B661F771F881F991F23
:1019E0001A9469F760957095809590959B01AC016C
:1019F000BD01CF010895052E97FB16F400940FD07A
:101A000057FD05D0D6DF07FC02D046F408C050953C
:101A10004095309521953F4F4F4F5F4F08959095DA
:101A20008095709561957F4F8F4F9F4F0895689473
:101A30000013E894A0E0B0E0EFE1FDE01DC0EFEF9F
:101A4000E7F959016A015E23550FEE08FE2C870164
:101A50009B01AC019E23990F660B762FCB013BD0E7
:101A6000CDB7DEB7EAE024C02F923F924F925F924B
:101A70006F927F928F929F92AF92BF92CF92DF929E
:101A8000EF92FF920F931F93CF93DF93CDB7DEB703
:101A9000CA1BDB0B0FB6F894DEBF0FBECDBF099497
:101AA0002A88398848885F846E847D848C849B84EE
:101AB000AA84B984C884DF80EE80FD800C811B81FC
:101AC000AA81B981CE0FD11D0FB6F894DEBF0FBE2B
:101AD000CDBFED010895DF93CF939F92A0E49A2E9E
:101AE0000024D001E001F00116950795F794E794E2
:101AF000D794C794B794A79448F41068A20FB31F63
:101B0000C41FD51FE61FF71F081E191E220F331F03
:101B1000441F551F661F771F881F991F9A9421F72E
:101B20009D01AE01BF01C00111249F90CF91DF91B3
:061B30000895F894FFCFB8
:081B36000A0908060504030773
:00000001FF
